:1000000002025D90E00AE0F4602FE090E003F0244B
:1000100007F582E434E0F583E0FF90E00AF0BFFFEB
:100020000690E00674FFF090E003E0FF2407F582FD
:10003000E434E0F58374FFF0227FFF221202729015
:10004000E000EFF01202C61202AA1202AEEF70FA3E
:100050001202C21202AEEF70FA90E000E0FF12024C
:100060007A12038912038312038F7EFF7FFF22EF30
:100070004E6012EF60010EEDBB010B89828A83F0A6
:10008000A3DFFCDEFA2289F05007F709DFFCA9F0B4
:1000900022BBFEFCF309DFFCA9F022AE0712015BD4
:1000A000EF701F90E00AE0B4FF02800D90E006E0E0
:1000B0002407F582E434E0F583EEF090E006F07F6B
:1000C00001227F002212027290E002EFF012000380
:1000D00090E001EFF0BFFF0512038C80F090E0028A
:1000E000E0FF12027A90E001E0FF12013A80D6AE02
:1000F0000712027290E004EFF0AF0612009BEF606F
:10010000047F0080027F0590E005EFF090E004E0BE
:10011000FF12027AA3E0FF22E4FFFEE4FDFC0DBD26
:1001200000010CED64A04C70F50FBF00010EBE0184
:10013000EABFFFE712028002028690E003EFF014AC
:10014000600A14600A240270090201FD020118020B
:1001500001EB90E003E0FF1202982274072FF58272
:10016000E434E0F583E0B4FF0790E006E0B507046F
:100170007F0180027F002212038012037D12037A26
:1001800012037712037412036E1203681203627F64
:1001900000227E007F037DFF7B017AE07907120059
:1001A0006F90E00A74FFF090E006F02253BEFC531B
:1001B000BEFBE5BE30E6FB7408FFF5C61202A67F63
:1001C00000221202DE1202DB1202D81202D5120243
:1001D000CF1202C97F0022120003EFB4FF07E490A0
:1001E000E001F0FF2212013A7F01221202EA12021C
:1001F000F612030212030E12031A02032612032F31
:1002000012033812034112034A12035302035C1211
:10021000027290E004EFF0B29002027A1202729041
:10022000E004EFF0B29102027A12027290E004EF61
:10023000F0B29402027A12027290E004EFF0B295EA
:1002400002027A12027290E004EFF0B29602027A91
:1002500012027290E004EFF0B29702027A787FE423
:10026000F6D8FD75810702003C12038953BEFC02DB
:100270000386A2AFE433FFC2AF22EF24FF92AF2286
:10028000E4FF1200EF227F011200EF227F02120032
:10029000EF2212028C02028690E004EFF02243FE6D
:1002A000022243FE01221201C2221201AC221201DB
:1002B000D72243FE802243FE402243FE202243FEFB
:1002C000102212017722020192020392D29122029D
:1002D00002CCD290220202D202039302029E0202B8
:1002E000A2C290220202E10202E40202E7C29122CB
:1002F0000202ED0202F00202F3C294220202F902AB
:1003000002FC0202FFC29522020305020308020357
:100310000BC29622020311020314020317C2972292
:1003200002031D02032002032302020F020329021B
:10033000032C02021C0203320203350202290203CB
:100340003B02033E02023602034402034702024319
:1003500002034D020350020250020356020359D217
:10036000972202035FD29622020365D295220203EE
:100370006BD294220203710202B20202B60202BAE6
:100380000202BE020292C2AF22D2AF220202690270
:0403900000C5222260
:00000001FF
