:100000000201CD90E007E0F4602FE090E003F024DF
:1000100006F582E434E0F583E0FF90E007F0BFFFEF
:100020000690E00574FFF090E003E0FF2406F582FF
:10003000E434E0F58374FFF0227FFF221201E290A6
:10004000E000EFF012022412020812020CEF70FA24
:1000500012022012020CEF70FA90E000E0FF120191
:10006000EA1202B41202AE1202BA7EFF7FFF22EF42
:100070004E6012EF60010EEDBB010B89828A83F0A6
:10008000A3DFFCDEFA2289F05007F709DFFCA9F0B4
:1000900022BBFEFCF309DFFCA9F022AE0712011817
:1000A000EF701F90E007E0B4FF02800D90E005E0E4
:1000B0002406F582E434E0F583EEF090E005F07F6D
:1000C00001227F00221201E290E002EFF012000311
:1000D00090E001EFF0BFFF051202B780F090E00260
:1000E000E0FF1201EA90E001E0FF1201A880D6AE25
:1000F000071201E290E001EFF0AF0612009BEF6003
:10010000047F0080027F0590E002EFF090E001E0C4
:10011000FF1201EAA3E0FF2274062FF582E434E027
:10012000F583E0B4FF0790E005E0B507047F0180A8
:10013000027F00221202A81202A51202A212029F3E
:1001400012029C12029612029012028A7F00227EF4
:10015000007F017DFF7B017AE0790612006F90E05D
:100160000774FFF090E005F02253BEFC53BEFBE5A0
:10017000BE30E6FB7408FFF5C61202047F002212AF
:10018000023C12023912023612023312022D1202FE
:10019000277F0022120003EFB4FF07E490E001F094
:1001A000FF221201A87F012290E003EFF07003020A
:1001B00001BB90E003E0FF1201F622120248120296
:1001C0005412026012026C120278020284787FE4F8
:1001D000F6D8FD75810702003C1202B453BEFC0242
:1001E00002B1A2AFE433FFC2AF22EF24FF92AF22ED
:1001F000E4FF1200EF2290E004EFF02243FE02221F
:1002000043FE012212017F2212016922120194226F
:1002100043FE802243FE402243FE202243FE102262
:100220001201342202014F0202BDD2912202022A9F
:10023000D290220202300202BE0201FC020200C27F
:10024000902202023F020242020245C291220202B1
:100250004B02024E020251C2942202025702025A7B
:1002600002025DC29522020263020266020269C2B4
:10027000962202026F020272020275C297220202E5
:100280007B02027E020281D29722020287D296224C
:1002900002028DD29522020293D294220202990286
:1002A000021002021402021802021C0201F00202F1
:0F02B000ABC2AF22D2AF220201D90200C5222277
:00000001FF
