:1000000002018D90E006E0F4602FE090E003F02420
:1000100005F582E434E0F583E0FF90E006F0BFFFF1
:100020000690E00474FFF090E003E0FF2405F58201
:10003000E434E0F58374FFF0227FFF221201AC90DC
:10004000E000EFF01201E41201D81201DCEF70FAC7
:100050001201E01201DCEF70FA90E000E0FF120103
:10006000B41202231202051202297EFF7FFF22EF43
:100070004E6012EF60010EEDBB010B89828A83F0A6
:10008000A3DFFCDEFA2289F05007F709DFFCA9F0B4
:1000900022BBFEFCF309DFFCA9F022AE0712011817
:1000A000EF701F90E006E0B4FF02800D90E004E0E6
:1000B0002405F582E434E0F583EEF090E004F07F6F
:1000C00001227F00221201AC90E002EFF012000347
:1000D00090E001EFF0BFFF0512022680F090E002F1
:1000E000E0FF1201B490E001E0FF12019980D6AE6A
:1000F000071201AC90E001EFF0AF0612009BEF6039
:10010000047F0080027F0590E002EFF090E001E0C4
:10011000FF1201B4A3E0FF2274052FF582E434E05E
:10012000F583E0B4FF0790E004E0B507047F0180A9
:10013000027F00227E007F017DFF7B017AE079054E
:1001400012006F90E00674FFF090E004F02253BEBE
:10015000FC53BEFBE5BE30E6FB7408FFF5C612019A
:10016000D47F00221201FC1201F91201F61201F3F0
:100170001201ED1201E77F0022120003EFB4FF0726
:10018000E490E001F0FF221201997F0122787FE4E0
:10019000F6D8FD75810702003CEF70030201C01222
:1001A00001C62212022353BEFC020220A2AFE43396
:1001B000FFC2AF22EF24FF92AF22E4FF1200EF2232
:1001C00012021D02021190E003EFF02243FE022210
:1001D00043FE01221201642212014E2212017922F1
:1001E0001201FF2202013402022CD291220201EA02
:1001F000D290220201F002022D0201CC0201D07F36
:1002000000220201BA020202C29122020208020284
:100210000B02020EC2902202021402021702021AFC
:0E022000C2AF22D2AF220201A30200C52222E9
:00000001FF
