:1000000002071902096475E1E5120E8EE490E00022
:10001000F02222020BD2EF7803CEC313CE13D8F90D
:10002000FFE4FDFCC3ED9FEC9E500EE4FB0BEBB434
:1000300020FB0DBD00010C80EB222202087090E035
:10004000017401F0A374E0F0A374B0F0F990E08EB5
:100050007401F0A374E0F0A3E9F090E09C7401F067
:10006000A374E4F0A37498F0E490E08BF0A3F09014
:10007000E091F0A3F0FF2290E4A5EBF0A3EAF0A357
:10008000E9F02202067A90E4B8EBF0A3EAF0A3E9E3
:10009000F0120E2CA3EFF0E4A3F0A3F0A3F090E095
:1000A00001E0FBA3E0FAA3E0F9C003C002C00190A5
:1000B000E08EA3E0FAA3E0F9C3D082D083D0E0E9D8
:1000C0009582EA9583500302019290E09CE0FBA3A5
:1000D000E0FAA3E0F9C003C002C00190E08EA3E003
:1000E000FAA3E0F9C3D082D083D0E0E99582EA9503
:1000F00083504490E4B8E0FBA3E0FAA3E0F91203D4
:10010000E1FF603390E08EE0FBA3E0FAA3E0F9EFBB
:1001100012042790E08FE475F0011204C290E4B954
:10012000E475F0011204C290E4BEE004F0709B900C
:10013000E4BDE004F0809390E09CE0FBA3E0FAA330
:10014000E0F9C003C002C00190E08EE0FBA3E0FA3A
:10015000A3E0F9D082D083D0E06B7008E9658270AB
:1001600003EA658370117B0190E08E04F0A374E0D4
:10017000F0A374B0F0801B90E08BE07002A3E070FD
:100180000B120D5190E08BE4F0A304F090E4BC74EA
:1001900001F090E4BCE0600302026790E001E0FB44
:1001A000A3E0FAA3E0F9C003C002C00190E08EA36F
:1001B000E0FAA3E0F9C3D082D083D0E0E99582EAE7
:1001C0009583504490E4B8E0FBA3E0FAA3E0F91271
:1001D00003E1FF603390E08EE0FBA3E0FAA3E0F9D7
:1001E000EF12042790E08FE475F0011204C290E44E
:1001F000B9E475F0011204C290E4BEE004F0709B13
:1002000090E4BDE004F0809390E08BE07002A3E006
:10021000700B120D5190E08BE4F0A304F090E0011C
:10022000E0FBA3E0FAA3E0F9C003C002C00190E044
:100230008EE0FBA3E0FAA3E0F9D082D083D0E06B9C
:100240007008E965827003EA6583701B90E08BE0BB
:100250007002A3E0700B120D5190E08BE4F0A30448
:10026000F090E4BC7401F090E4BCE0701B90E08B73
:10027000E07002A3E0700B120D5190E08BE4F0A34C
:1002800004F090E4BC7401F090E4BDE0FEA3E0FD56
:10029000AC0690E4BBE0FF120D38AE04AF0522902F
:1002A000E0ABE0702BE5D9F0E0FFC3947F501190F4
:1002B000E0A0E0FBA3E0FAA3E0F9EF12042780102E
:1002C000120E3C120D2BE490E0ABF090E004F02213
:1002D00090DF53E0FF90E0ABE0D39F403A120E2C4A
:1002E00090E4A4EFF090E49CE0700990E004E0D387
:1002F000940A4012120E3CE490E08DF090E0ABF0D6
:1003000090E004F08009120E4290E004E004F090C6
:10031000E4A4E0FF020D38E490E004F0FF90E0ABCD
:10032000E0FEEFC39E504490DF53E0FD9400402276
:10033000ED9481501DEF2401FDE433FC90E0A0E03A
:10034000FBA3E0FAA3E0F98D828C83E5D91204398E
:10035000801690E0A0E0FBA3E0FAA3E0F98E82759E
:100360008300E412043980030F80B290E0A0E0FB28
:10037000A3E0FAA3E0F990E0ABE0F5827583001208
:1003800003FAFFE490E0ABF0EF30E710120E969026
:10039000E0A0EBF0A3EAF0A3E9F0800F7BFF7A087E
:1003A000792D120E8A120D2B120E3C120E2C90E497
:1003B000A4EFF090DF53E0FFD39400400AEF948164
:1003C0005005120E42800EE490E08DF090E49CE027
:1003D0006003120E3C90E4A4E0FF120D3853E9DFF5
:1003E00022BB010689828A83E0225002E722BBFEFB
:1003F00002E32289828A83E49322BB010CE58229ED
:10040000F582E5833AF583E0225006E92582F8E695
:1004100022BBFE06E92582F8E222E58229F582E583
:10042000833AF583E49322BB010689828A83F02212
:100430005002F722BBFE01F322F8BB010DE5822931
:10044000F582E5833AF583E8F0225006E92582C873
:10045000F622BBFE05E92582C8F222EF8DF0A4A8A2
:10046000F0CF8CF0A428CE8DF0A42EFE22BC000B81
:10047000BE0029EF8DF084FFADF022E4CCF875F0DA
:1004800008EF2FFFEE33FEEC33FCEE9DEC984005B9
:10049000FCEE9DFE0FD5F0E9E4CEFD22EDF8F5F07F
:1004A000EE8420D21CFEADF075F008EF2FFFED3387
:1004B000FD4007985006D5F0F222C398FD0FD5F005
:1004C000EA22C5F0F8A3E028F0C5F0F8E58215822D
:1004D00070021583E038F022ECF0A3EDF0A3EEF00B
:1004E000A3EFF022EF4E6012EF60010EEDBB010BA7
:1004F00089828A83F0A3DFFCDEFA2289F05007F7B5
:1005000009DFFCA9F022BBFEFCF309DFFCA9F02205
:1005100090E000E090E4A4F07003120D777F807EFD
:100520000012001690DF62E020E01890E000E0701A
:100530000312000690E499E0FBA3E0FAA3E0F97D42
:1005400002807A75E1E790E499E0FBA3E0FAA3E08A
:10055000F91203E1F5D9E4FF90E499E0FBA3E0FA96
:10056000A3E0F91203E1FEEFC39E500FEFF5827591
:100570008300A31203FAF5D90F80DDE4FFAE070F65
:10058000EEC39403502075E1E3E4FE90DF62E09057
:10059000E4A5F020E409AD060EEDC394C840EC904C
:1005A000E4A5E030E4D790E4A5E020E41375E1E7AA
:1005B00090E499E0FBA3E0FAA3E0F97D03020EC901
:1005C000120E2C90E4A6EFF090E4987401F0120D56
:1005D0003822120E2C90E4C1EFF090E002E475F0A6
:1005E000011204C290E092E004F0700690E091E005
:1005F00004F090E09CE0FBA3E0FAA3E0F9C003C0A4
:1006000002C00190E001E0FBA3E0FAA3E0F9D08290
:10061000D083D0E06B7008E965827003EA6583706F
:100620000D90E00104F0A374E0F0A374B0F090E04A
:100630008EE0FBA3E0FAA3E0F9C003C002C0019082
:10064000E001E0FBA3E0FAA3E0F9D082D083D0E0A0
:100650006B7008E965827003EA6583600D120D51C5
:1006600090E08BE4F0A304F08007E490E08BF0A32B
:10067000F090E4C1E0FF120D3822C0E0C0F0C0836A
:10068000C082C0D075D000C000C001C002C003C08D
:1006900004C005C006C007120E2C90E4B4EFF0E5CC
:1006A000E95591A3F053E9FE53E9FD53E9FB53E902
:1006B000F753E9EF53E9DF53E9BF53E97FE030E354
:1006C00003120EEA90E4B5E030E503120EED90E47B
:1006D000B5E030E603120EF090E4B5E030E414909B
:1006E000E4B7E5E2F090E4B6E5E3F0E0FEA3E0FF76
:1006F000120EF3539BFC90E4B4E0FF120D38D007C8
:10070000D006D005D004D003D002D001D000D0D084
:10071000D082D083D0F0D0E032787FE4F6D8FD7577
:100720008107020760020A1DE493A3F8E493A34043
:1007300003F68001F208DFF48029E493A3F854075C
:10074000240CC8C333C4540F4420C8834004F45657
:10075000800146F6DFE4800B01020408102040808F
:10076000900B51E47E019360BCA3FF543F30E50938
:10077000541FFEE493A360010ECF54C025E060A88F
:1007800040B8E493A3FAE493A3F8E493A3C8C58222
:10079000C8CAC583CAF0A3C8C582C8CAC583CADF90
:1007A000E9DEE780BE90E0A37410F0A3743DF0A3EF
:1007B0007423F0E4A3F0A3F0A3F090E0AEE0FCA378
:1007C000E0FDEC90E0A9F0A3EDF0120D9C120DEA13
:1007D0007B017AE079A312091690E0A9E0FEA3E07C
:1007E000FDEDFF90E0ACEEF0A3EFF0120DFF90E016
:1007F000ACE0FEA3E0FF90E49DEEF0A3EFF0120D5D
:10080000F6120BF17F11120B937F64120A81120E04
:1008100034120E9E020E9A4D41433A20427566668E
:10082000657220666C75736865640D0A004D4143FE
:100830003A20435243204661696C65640A0D004DBD
:1008400041433A20427566666572206F7665727222
:10085000756E0D0A004D41433A20556E736368650D
:1008600064756C6564207472616E736D69740A00DE
:10087000C0E0C0F0C083C082C0D075D000C000C04E
:1008800001C002C003C004C005C007E4FDFC120E95
:100890002C90E4C0EFF0E58620E003C2E90D90E47F
:1008A000C0E0FF120D38ED4C6003120EFCD007D0F3
:1008B00005D004D003D002D001D000D0D0D082D057
:1008C00083D0F0D0E03290E4A3EFF0B40900503DC3
:1008D0009008D7F82828730208F20208F50208F8F1
:1008E0000208FB0208FE02090102090402090702CC
:1008F000090A020EFF020E6C020D3E0207A5020558
:1009000010020B7302029F0209EA020DAD90E4A3EC
:10091000E0FF120E66229000071203FA90DF4AF001
:100920009000061203FA90DF49F09000051203FAD6
:1009300090DF48F09000041203FA90DF47F0900037
:10094000031203FA90DF46F09000021203FA90DFE0
:1009500045F09000011203FA90DF44F01203E19099
:10096000DF43F022C0E0C0F0C083C082C0D075D0A9
:1009700000C000C001C002C003C004C005C006C062
:1009800007120E2C90E4ACEFF0C289120EE790E44F
:10099000ACE0FF120D38D007D006D005D004D0034C
:1009A000D002D001D000D0D0D082D083D0F0D0E01F
:1009B0003290E49FE0F4602FE090E4A3F02493F5FC
:1009C00082E434E0F583E0FF90E49FF0BFFF0690FF
:1009D000E08974FFF090E4A3E0FF2493F582E4340F
:1009E000E0F58374FFF0227FFF2290E000E0600ECC
:1009F00012000675E1E675E1E6120D77800675E1F5
:100A0000E675E1E6120E2C90E4A4EFF0E490E49C8D
:100A1000F0120D387BFF7A087917020E8A120E2C1D
:100A200090E4A0EFF0120EAE120E82120E86EF705E
:100A3000FA120A50120E86EF70FA90E4A0E0FF124C
:100A40000D38120EDE120ED8120EE47EFF7FFF224A
:100A5000120C5E90E4A1EFF0120B29AD07E0FF123B
:100A60000DC4EFF012003E120DBDEFF0120D031297
:100A70000DBDEFF0120ECFAD07E0FF120DC4EFF089
:100A800022EF75F01FA4FFAEF07C007D6412046DB0
:100A9000EF541FFF90DF0AE0FCA3E054E0FDECFE02
:100AA000ED4FFF90DF0AEEF0A3EFF022AE07120C3D
:100AB0000EEF701F90E49FE0B4FF02800D90E0897C
:100AC000E02493F582E434E0F583EEF090E089F0E1
:100AD0007F01227F0022120E2C90E4A2EFF0120977
:100AE000B190E4A1EFF0BFFF05120EE180F090E4B9
:100AF000A2E0FF120D3890E4A1E0FF1208C680D6F4
:100B0000AE07120E2C90E4B8EFF0AF06120AACEF6D
:100B100060047F0080027F0590E4B9EFF090E4B8B4
:100B2000E0FF120D38A3E0FF2253F1FE43F30CE582
:100B3000C65440C413135403240CF5C575C2D843DE
:100B400086C043C482C2E9C28BD2AA439A047F0002
:100B50002242E0AE000141E08A0041E0000041E4B1
:100B6000980041E08D0041E49C0041E0AB0041E091
:100B7000040000120C4490E000E0600E12000690A9
:100B8000E09FE0FF120B93020D7790E09FE0FF12D1
:100B90000B9322EF24F5FFE434FFFE7C007D051269
:100BA000045B74652FFF74013E444090DF10F0A396
:100BB000EFF0227BFF7A08793F120E8A90E08DE0F9
:100BC000700990E49CE07003120E3C90E49C740168
:100BD000F022C0E0C083C082C0D075D000C007C280
:100BE0008BAFC1120EF9D007D0D0D082D083D0E025
:100BF0003290DF02E054F7F0A3E04420F090DF4FA2
:100C0000747FF090DF0A7405F0A3740FF0227493E0
:100C10002FF582E434E0F583E0B4FF0790E089E04B
:100C2000B507047F0180027F00227E007F097DFFDF
:100C30007B017AE079931204E490E49F74FFF090D2
:100C4000E089F022E4FA90DF62E030E410EAC39435
:100C500032500A7F647E001200160A80E92290E07A
:100C6000AFE02401FF90E0AEE03400FEE4FCFD9034
:100C7000E0051204D87F0022120E2C90E4A7EFF0BA
:100C800043912053E9DF439A01E0FF120D387F00C2
:100C900022120E2C90E4A4EFF043914053E9BF439D
:100CA0009A01E0FF120D387F002290E08DE0701273
:100CB00090DF53E0D39400400990E08D7401F0126E
:100CC0000E422253BEFC53BEFBE5BE30E6FB740869
:100CD000FFF5C6120E7E7F0022120EC6120EC31240
:100CE0000EC0120EBD120EB7120EB17F002290E49C
:100CF00098E06005E4F0020E5A7BFF7A08795512FD
:100D00000E8A2290E0A07401F0A374E0F0A37409AD
:100D1000F0120E4E7F00221209B1EFB4FF07E490EB
:100D2000E4A1F0FF221208C67F0122120E2C90E4EB
:100D3000A4EFF0E490E08DF0EF24FF92AF22120ECA
:100D40002C90E4A5EFF090E08AE090E4A4F0020D8E
:100D50003890E001E0FBA3E0FAA3E0F91203E1FF21
:100D6000120E7122120E2C90E4A7EFF05391DFE0E7
:100D7000FF120D387F002275E1E675E1E6120E9252
:100D800075E1E290E0007401F022120E2C90E4A4D0
:100D9000EFF0C289D2A8120D387F002290DF17E051
:100DA00054F7F0E04408F0E5E920E7FB2290E499ED
:100DB000E0FBA3E0FAA3E0F9E4FD020EC9AD079061
:100DC000E4A1E0FFEFB5050280027F012290E4A7D5
:100DD000EBF0A3EAF0A3E9F0A3EDF02290DF1774A3
:100DE00004F090DF17E020E4F92253BEFB53C6FE67
:100DF000E5BE30E6FB2290DF4BEEF0A3EFF0229051
:100E0000DF4DEEF0A3EFF022120DDC120D777F0024
:100E100022120EA2E4FF120ED222120EDE53BEFCEC
:100E2000020EDB90E4B8EEF0A3EFF022A2AFE433C1
:100E3000FFC2AF2290DF17E04408F0227F07120BB9
:100E400000227F06120B002290E4A4EFF0227F0321
:100E5000120B002290E4A1EFF0227F08120B002277
:100E600090E4BFEFF02290E4A4EFF022E4FF020E42
:100E7000CC8FC17F002243FE022243FE0122120CCE
:100E8000D922120CC322120D172212008622120D33
:100E90006422120C782212007722120D8A22120C80
:100EA0009122120E0822120E1122120EF622020CAC
:100EB0002A020012D29122020EB4D29022020EBA5D
:100EC00002003A020E76020E7A020DCD020E487F23
:100ED0000022020E54020EA6020ED5C2AF22D2AFDD
:100EE00022020E1A020AD6020BB3020F00020CAA4B
:100EF000020CEE020E23020E60020EAA0205D2229E
:010F000022CE
:00000001FF
