:10000000021826021C8875E1E5122701E490E082BF
:10001000F02222021E77E4F5E6F5E7F5E2F5E35378
:10002000E4F353E40F43E504D2B943D84043E54039
:10003000E5E454FC4401F5E47F0022021BE453BED6
:10004000FB53C6FEE5BE30E6FB22220218B290E06A
:1000500082E0600E12000675E1E675E1E6122511F8
:10006000800675E1E675E1E612257290E656EFF03E
:10007000E490E64EF01224AC7BFF7A0D7902022662
:10008000FD2222021787BB010689828A83E0225063
:1000900002E722BBFE02E32289828A83E49322BB29
:1000A000010CE58229F582E5833AF583E0225006CA
:1000B000E92582F8E622BBFE06E92582F8E222E580
:1000C0008229F582E5833AF583E49322BB01068910
:1000D000828A83F0225002F722BBFE01F322F8BB92
:1000E000010DE58229F582E5833AF583E8F0225097
:1000F00006E92582C8F622BBFE05E92582C8F22260
:10010000EF8DF0A4A8F0CF8CF0A428CE8DF0A42E13
:10011000FE22BC000BBE0029EF8DF084FFADF02263
:10012000E4CCF875F008EF2FFFEE33FEEC33FCEE75
:100130009DEC984005FCEE9DFE0FD5F0E9E4CEFD68
:1001400022EDF8F5F0EE8420D21CFEADF075F0083B
:10015000EF2FFFED33FD4007985006D5F0F222C394
:1001600098FD0FD5F0EA22C5F0F8A3E028F0C5F01D
:10017000F8E582158270021583E038F022BB010A8F
:1001800089828A83E0F5F0A3E022500687F009E730
:100190001922BBFE07E3F5F009E3192289828A835D
:1001A000E493F5F074019322BB0110E58229F582F6
:1001B000E5833AF583E0F5F0A3E0225009E92582D2
:1001C000F886F008E622BBFE0AE92582F8E2F5F09F
:1001D00008E222E5832AF583E993F5F0A3E9932267
:1001E000F8BB0111E58229F582E5833AF583E8F051
:1001F000E5F0A3F0225009E92582C8F608A6F0220E
:10020000BBFE09E92582C8F2E5F008F22275F00884
:10021000758200EF2FFFEE33FECD33CDCC33CCC54E
:100220008233C5829BED9AEC99E58298400CF58269
:10023000EE9BFEED9AFDEC99FC0FD5F0D6E4CEFBDB
:10024000E4CDFAE4CCF9A88222B800C1B90059BAC9
:10025000002DEC8BF084CFCECDFCE5F0CBF97818F7
:10026000EF2FFFEE33FEED33FDEC33FCEB33FB10F1
:10027000D703994004EB99FB0FD8E5E4F9FA22780B
:1002800018EF2FFFEE33FEED33FDEC33FCC933C91D
:1002900010D7059BE99A4007EC9BFCE99AF90FD827
:1002A000E0E4C9FAE4CCFB2275F010EF2FFFEE3347
:1002B000FEED33FDCC33CCC833C810D7079BEC9A86
:1002C000E899400AED9BFDEC9AFCE899F80FD5F00F
:1002D000DAE4CDFBE4CCFAE4C8F922EB9FF5F0EACE
:1002E0009E42F0E99D42F0EC6480C864809845F03D
:1002F00022EB9FF5F0EA9E42F0E99D42F0E89C4532
:10030000F022E8600FEFC333FFEE33FEED33FDEC78
:1003100033FCD8F122BB010789828A8302048E5004
:1003200005E9F8020482BBFE05E9F802049A898215
:100330008A830204A6BB010DE58229F582E5833A92
:10034000F58302048E5007E92582F8020482BBFE81
:1003500007E92582F802049AE58229F582E5833AC5
:10036000F5830204A6BB010789828A830203F35046
:1003700005E9F80204ECBBFE05E9F80204F822BB2B
:10038000010DE58229F582E5833AF5830203F350F6
:1003900007E92582F80204ECBBFE07E92582F80292
:1003A00004F822BB010789828A830204C35005E94D
:1003B000F80204B6BBFE05E9F80204CF89828A83FD
:1003C0000204DCBB010DE58229F582E5833AF58361
:1003D0000204C35007E92582F80204B6BBFE07E910
:1003E0002582F80204CFE58229F582E5833AF58378
:1003F0000204DCECF0A3EDF0A3EEF0A3EFF022A8F2
:10040000828583F0D083D08212041612041612045F
:1004100016120416E473E493A3C583C5F0C583C81C
:10042000C582C8F0A3C583C5F0C583C8C582C822EC
:10043000D083D082F8E4937012740193700DA3A35B
:1004400093F8740193F5828883E47374029368606F
:10045000EFA3A3A380DFEF4E6012EF60010EEDBBB0
:10046000010B89828A83F0A3DFFCDEFA2289F05037
:1004700007F709DFFCA9F022BBFEFCF309DFFCA9AA
:10048000F022E6FC08E6FD08E6FE08E6FF22E0FCB6
:10049000A3E0FDA3E0FEA3E0FF22E2FC08E2FD08EA
:1004A000E2FE08E2FF22E493FC740193FD740293E0
:1004B000FE740393FF22E6FB08E6F908E6FA08E675
:1004C000CBF822E0F8A3E0F9A3E0FAA3E0FB22E2F4
:1004D000FB08E2F908E2FA08E2CBF822E493F874A8
:1004E0000193F9740293FA740393FB22ECF608ED7E
:1004F000F608EEF608EFF622ECF208EDF208EEF25E
:1005000008EFF22212257290E658EFF090E001E039
:1005100090E656F01224ACE012043005430D06F1CB
:100520002B07042D05F161061E62065363067964EC
:1005300006B76506D66D05987205CD73054674003D
:1005400000073C02061590E1B7E0FF04F090E25688
:10055000E0FBA3E0FAA3E0F9900003EF1200DE7BDA
:10056000FF7A0D796D1225FD90E65D74FFF0A3749E
:100570000DF0A3742AF07B017AE179267D12122214
:10058000727BFF7A0D792C1225FD90E256E0FBA3D9
:10059000E0FAA3E0F90227B190E125E070097BFFC2
:1005A0007A0D798302074790E25DE0600EE4F07B0C
:1005B000FF7A0D79921225FD0227AD90E25D74015C
:1005C000F07BFF7A0D79A81225FD0227A190E12585
:1005D000E06012E4F090E25DF01227957BFF7A0D67
:1005E00079BD0207471225B97BFF7A0D79D0020742
:1005F0004712278112017DFF90E252E5F0F0A3EF50
:10060000F07BFF7A0D79E21225FD90E252E0FEA325
:10061000E0FF1225E87BFF7A0D792C02074790E274
:100620005BE0FFA3E090E252CFF0A3EFF07BFF7A14
:100630000D79F21225FD90E25BE0FEA3E0FF1225AA
:10064000E87BFF7A0D792C1225FD7B017AE2795245
:1006500002277990E255E0600EE4F07BFF7A0E7994
:10066000051225FD02276D90E2557401F07BFF7A9B
:100670000E791D1225FD02276112275590E239EBF4
:10068000F0A3EAF0A3E9F07BFF7A0E79341225FD9E
:1006900090E65D74FFF0A3740DF0A3742AF090E26D
:1006A00039E0FBA3E0FAA3E0F97D081222727BFF98
:1006B0007A0D792C02074790E64AE0600BE4F07B64
:1006C000FF7A0E794702074790E64A7401F07BFFF4
:1006D0007A0E7952807190E238E06005E4F00226EB
:1006E000DF90E2387401F07FA07E86FD7C0002225C
:1006F000D290E1B6E0FFB41A067E0B7F0B8016EFB6
:1007000004FF801190E1B6E0FFB40B067E1A7F1A59
:100710008003EF14FF90E1B6EFF07BFF7A0E795C77
:100720001225FD90E1B6E0FF1227497BFF7A0E7992
:10073000671225FD90E1B6E0FF022745E490E657F9
:10074000F07B017AE679561225FD2290E6C3122548
:100750006AA3EFF0E4A3F0A3F0A3F090E083E0FB42
:10076000A3E0FAA3E0F9C003C002C00190E120A316
:10077000E0FAA3E0F9C3D082D083D0E0E99582EA21
:100780009583500302084F90E1B2E0FBA3E0FAA387
:10079000E0F9C003C002C00190E120A3E0FAA3E0A9
:1007A000F9C3D082D083D0E0E99582EA95835044A2
:1007B00090E6C3E0FBA3E0FAA3E0F9120086FF6035
:1007C0003390E120E0FBA3E0FAA3E0F9EF1200CCC4
:1007D00090E121E475F00112016790E6C4E475F040
:1007E0000112016790E6C9E004F0709B90E6C8E052
:1007F00004F0809390E1B2E0FBA3E0FAA3E0F9C03B
:1008000003C002C00190E120E0FBA3E0FAA3E0F9FD
:10081000D082D083D0E06B7008E965827003EA650E
:100820008370117B0190E12004F0A374E2F0A374C3
:1008300061F0801B90E11DE07002A3E0700B1224B8
:10084000EB90E11DE4F0A304F090E6C77401F09092
:10085000E6C7E0600302092490E083E0FBA3E0FA2E
:10086000A3E0F9C003C002C00190E120A3E0FAA315
:10087000E0F9C3D082D083D0E0E99582EA95835035
:100880004490E6C3E0FBA3E0FAA3E0F9120086FF80
:10089000603390E120E0FBA3E0FAA3E0F9EF12005F
:1008A000CC90E121E475F00112016790E6C4E47593
:1008B000F00112016790E6C9E004F0709B90E6C871
:1008C000E004F0809390E11DE07002A3E0700B1251
:1008D00024EB90E11DE4F0A304F090E083E0FBA39F
:1008E000E0FAA3E0F9C003C002C00190E120E0FB00
:1008F000A3E0FAA3E0F9D082D083D0E06B7008E9DE
:1009000065827003EA6583701B90E11DE07002A3AD
:10091000E0700B1224EB90E11DE4F0A304F090E6EC
:10092000C77401F090E6C7E0701B90E11DE0700213
:10093000A3E0700B1224EB90E11DE4F0A304F0900F
:10094000E6C77401F090E6C8E0FEA3E0FDAC0690B7
:10095000E6C6E0FF1224ACAE04AF052212272190B8
:10096000E6CF1203F390E23FE0FCA3E0FDA3E0FE3C
:10097000A3E0FF90E114E0F8A3E0F9A3E0FAA3E01C
:100980002FFFEA3EFEE93DFDE83CFC90E6D3120372
:10099000F390E6CFE0F8A3E0F9A3E0FAA3E0FBA32D
:1009A000E0FCA3E0FDA3E0FEA3E0C39BFFEE9AFE04
:1009B000ED99FDEC98FCA31203F390E6CFE0FCA3C5
:1009C000E0FDA3E0FEA3E0FF90E114E0F8A3E0F96E
:1009D000A3E0FAA3E0FBD31202F1503F90E114E050
:1009E000FCA3E0FDA3E0FEA3E0FF90E6D3E0F8A3C4
:1009F000E0F9A3E0FAA3E0FBC31202F1406390E642
:100A0000CFE0FCA3E0FDA3E0FEA3E0FFA3E0F8A39A
:100A1000A3A3E0D31202F15048803C90E114E0FC23
:100A2000A3E0FDA3E0FEA3E0FF90E6D3E0F8A3E09F
:100A3000F9A3E0FAA3E0FBC31202F1501A90E6CF4B
:100A4000E0FCA3E0FDA3E0FEA3E0FFA3E0F8A3A386
:100A5000A3E01202F1500A90E6D71203FF00000053
:100A600000E4FF7E04FDFC90E6D7E0F8A3E0F9A3E4
:100A7000E0FAA3E0FBD31202F1404E90E6CFE0FC97
:100A8000A3E0FDA3E0FEA3E02400FFEE3404FEE4B7
:100A90003DFDE43CFC90E1141203F390E6D7E0FC4A
:100AA000A3E0FDA3E0FEA3E02400FFEE34FCFEED96
:100AB00034FFFDEC34FFFC90E23F1203F390E6D7E5
:100AC0001203FF00000400803890E114E0FCA3E072
:100AD000FDA3E0FEA3E0FF90E23FE0F8A3E0F9A36E
:100AE000E0FAA3E0FBEF2BFFEE3AFEED39FDEC3828
:100AF000FC90E1141203F390E23F1203FF000000A8
:100B00000090E6CFA3A3E0FEA3E07805C333CE3385
:100B1000CED8F9FFC006C00790E6D7A3A3E0FEA396
:100B2000E07805C333CE33CED8F9FDAC06D007D07C
:100B30000602281490E657EBF0A3EAF0A3E9F09040
:100B4000E657E0FBA3E0FAA3E0F9120086FF90E687
:100B50005AF090E25EE0FBA3E0FAA3E0F9EF1200A6
:100B6000CC90E657E0FBA3E0FAA3E0F99000021274
:100B7000009FFF90E65BE4F0A3EFF090000112000D
:100B80009FFD7C0090E65CE0FEE42DFFEC3EFE90D5
:100B9000E65BF0A3EFF090E25EE0FBA3E0FAA3E0F7
:100BA000F9900001EE8FF01201E090E657E0FBA310
:100BB000E0FAA3E0F990000312009FFF90E25EE0EC
:100BC000FBA3E0FAA3E0F9900003EF1200DE90E649
:100BD00057E0FBA3E0FAA3E0F990000512009FFFA5
:100BE00090E65BE4F0A3EFF090000412009FFD900C
:100BF000E65CE0FEE42DFFEC3EFE90E65BF0A3EF4A
:100C0000F090E25EE0FBA3E0FAA3E0F9900004EECE
:100C10008FF01201E090E657E0FBA3E0FAA3E0F9C1
:100C200090000712009FFF90E65BE4F0A3EFF090C6
:100C3000000612009FFD90E65CE0FEE42DFFEC3E16
:100C4000FE90E65BF0A3EFF090E25EE0FBA3E0FA3B
:100C5000A3E0F9900006EE8FF01201E07F0890E625
:100C60005AE0FE14FDEFC39D502B90E657E0FBA326
:100C7000E0FAA3E0F98F8275830012009FFD90E2F5
:100C80005EE0FBA3E0FAA3E0F98F82758300ED122A
:100C900000DE0F80C9EE24FFFDE434FFFC90E65730
:100CA000E0FBA3E0FAA3E0F98D828C8312009FFFA2
:100CB00090E25EE0FBA3E0FAA3E0F990007EEF1281
:100CC00000DE90E657E0FBA3E0FAA3E0F98E827520
:100CD000830012009FFF90E25EE0FBA3E0FAA3E036
:100CE000F990007FEF1200DE12270990E25EEBF030
:100CF000A3EAF0A3E9F090E657E0FBA3E0FAA3E053
:100D0000F9224D41433A2042756666657220666C51
:100D100075736865640D0A0052656365697665647C
:100D2000207061636B65743A200020000D0A004D4D
:100D300041433A20435243204661696C65640A0D81
:100D4000005472616E736D697373696F6E20646FA6
:100D50006E650D0A005472616E736D697373696F0D
:100D60006E206661696C65643A20003A00547261D5
:100D70006E736D697474696E67207061636B6574FE
:100D80003A2000526164696F206973206F66660DB6
:100D90000A005265636569766572207475726E65C6
:100DA00064206F66660D0A00526563656976657238
:100DB000207475726E6564206F6E0D0A0052616456
:100DC000696F207475726E6564206F66660D0A0027
:100DD000526164696F207475726E6564206F6E0D68
:100DE0000A0053686F727420616464726573733AA9
:100DF00020005365742073686F7274416464726577
:100E000073733A2000416464726573732066696C81
:100E1000746572696E67206F66660D0A00416464CE
:100E2000726573732066696C746572696E67206F92
:100E30006E0D0A00457874656E64656420616464B3
:100E4000726573733A20004563686F206F66660DA4
:100E50000A004563686F206F6E0D0A004368616E7B
:100E60006E656C203A20000A0D0050726F67726147
:100E70006D20696E697469616C697A65640A0D0038
:100E800054696D657220737461727465640D0A0033
:100E90004D41433A20427566666572206F766572F1
:100EA00072756E0D0A004D41433A20556E736368AA
:100EB0006564756C6564207472616E736D69740A23
:100EC0000012273190E6561203F390E65A1203FF00
:100ED0007FFFFFFFE490E65EF0122802A3F0A3F08C
:100EE00090E65FE0FEA3E0FFC39401EE94004003B0
:100EF000020FDC7C007D09120100740A2FF974E1F5
:100F00003EFA7B01A3EBF0A3EAF0A3E9F09000081E
:100F100012009FFFC31320E003020FCB90E661E0B5
:100F2000FBA3E0FAA3E0F91203A390E656E0FCA3CA
:100F3000E0FDA3E0FEA3E0C39BFFEE9AFEED99FD6A
:100F4000EC98FC90E6641203F390E661E0FBA3E00A
:100F5000FAA3E0F9900004120335C004C005C006EE
:100F6000C00790E664E0FCA3E0FDA3E0FEA3E0FB85
:100F7000AA06A905A804D007D006D005D004C3EF5F
:100F80009BFFEE9AFEED99FDEC98FCA31203F39003
:100F9000E65AE0FCA3E0FDA3E0FEA3E0FF90E668D4
:100FA000E0F8A3E0F9A3E0FAA3E0FBC31202DB50F0
:100FB0001A90E668E0FCA3E0FDA3E0FEA3E0FF904A
:100FC000E65A1203F390E65E7401F090E660E004E6
:100FD000F0700690E65FE004F0020EE090E65EE05E
:100FE000604FE4FFFEFDFC90E65AE0F8A3E0F9A3B1
:100FF000E0FAA3E0FBD31202DB501190E656E0FCCE
:10100000A3E0FDA3E0FEA3E0FF02129190E65AE008
:10101000FCA3E0FDA3E0FEA3E0FF90E6701203F363
:1010200090E656E0FCA3E0FDA3E0FEA3E0FF122162
:10103000C22290E254E0702BE5D9F0E0FFC3947F28
:10104000501190E23CE0FBA3E0FAA3E0F9EF1200BC
:10105000CC801012267912249FE490E254F090E0A4
:1010600089F02290DF53E0FF90E254E0D39F403AB2
:1010700012257290E656EFF090E64EE0700990E08F
:1010800089E0D3940A4012122679E490E11FF0908F
:10109000E254F090E089F0800912267F90E089E028
:1010A00004F090E656E0FF0224ACE490E089F0FF03
:1010B00090E254E0FEEFC39E504490DF53E0FD9475
:1010C000004022ED9481501DEF2401FDE433FC909B
:1010D000E23CE0FBA3E0FAA3E0F98D828C83E5D942
:1010E0001200DE801690E23CE0FBA3E0FAA3E0F9F8
:1010F0008E82758300E41200DE80030F80B290E2DE
:101100003CE0FBA3E0FAA3E0F990E254E0F582753D
:10111000830012009FFFE490E254F0EF30E71012DA
:10112000270D90E23CEBF0A3EAF0A3E9F0800F7BFF
:10113000FF7A0D792F1226FD12249F12267912258F
:101140007290E656EFF090DF53E0FFD39400400A30
:10115000EF9481500512267F800EE490E11FF090FD
:10116000E64EE0600312267990E656E0FF1224ACCA
:1011700053E9DF22E490E659F090E65EF0FCFDFED4
:1011800090E6601203F3E47B64FAF9F890E660E01D
:10119000FCA3E0FDA3E0FEA3E0FF12024990E65F9E
:1011A000EFF0700690E659E0604790E65FE024308B
:1011B000FF90E65EE0245AF582E434E6F583EFF032
:1011C00090E65EE004F090E660E0FCA3E0FDA3E0C2
:1011D000FEA3E0FFE47B64FAF9F8120249AC00AD2B
:1011E00001AE02AF0390E6601203F390E65974017A
:1011F000F0E47B0AFAF9F890E660E0FCA3E0FDA3D6
:10120000E0FEA3E0FF12024990E65FEFF070069067
:10121000E659E0604790E65FE02430FF90E65EE04C
:10122000245AF582E434E6F583EFF090E65EE004BC
:10123000F090E660E0FCA3E0FDA3E0FEA3E0FFE4A5
:101240007B0AFAF9F8120249AC00AD01AE02AF0315
:1012500090E6601203F390E6597401F090E660A303
:10126000A3A3E02430FF90E65EE0245AF582E43444
:10127000E6F583EFF090E65EE004F0E0245AF582B4
:10128000E434E6F583E4F07B017AE6795A12074B01
:101290002290E66C1203F3E490E670F0A3F090E67F
:1012A00070E0FEA3E0FFC39401EE9400400302133C
:1012B000A27C007D09120100740A2FF974E13EFA44
:1012C0007B01A3EBF0A3EAF0A3E9F0900008120081
:1012D0009FFFC31320E00302139190E672E0FBA38B
:1012E000E0FAA3E0F91203A390E66CE0FCA3E0FDB2
:1012F000A3E0FEA3E0C39BFFEE9AFEED99FDEC9800
:10130000FC90E6751203F390E672E0FBA3E0FAA30B
:10131000E0F990000412033590E675E0F8A3E0F9D7
:10132000A3E0FAA3E0FBC31202F1406590E672E08D
:10133000FBA3E0FAA3E0F990000812009F30E0114F
:10134000E92408F9E43AFA12008654FD1200CC8030
:101350003590E672E0FBA3E0FAA3E0F9C003C00217
:10136000C00112031590E672A3A3E09000041203DB
:10137000C3EF2BFFEE3AFEED39FDEC38FCD001D087
:1013800002D00312036590E670A3E0FF1224C5802B
:101390001190E671E004F0700690E670E004F0024F
:1013A000129E0226A990E65DEBF0A3EAF0A3E9F015
:1013B0007BFF7A0D79181225FD90E65DE0FBA3E036
:1013C000FAA3E0F9120086FF1224C11225F790E675
:1013D0005DE0FBA3E0FAA3E09000011225E11225F5
:1013E000F790E65D1224B21225F790E65DE0FBA3CC
:1013F000E0FAA3E09000041225E11225F790E65DE3
:10140000E0FBA3E0FAA3E0F99000061225E2122522
:10141000F7E490E660F090E65DE0FBA3E0FAA3E07D
:10142000F912008624F7FF90E660E0FEC39F50218A
:10143000E92408F9E43AFAEE7E0029F9EE3AFA12C4
:101440000086FF1224C11225F790E660E004F080C8
:10145000C590E65DE0FBA3E0FAA3E090007E1224D5
:10146000BC1225F790E65DE0FBA3E0FAA3E0F9905B
:10147000007F1224BD7BFF7A0D792C1225FD90E6AA
:101480005DE0FBA3E0FAA3E0F92290E65912256A99
:10149000A3EFF090E659E0F9A3E0FAA3E090E2436D
:1014A000C9F0A3EAF0A3E9F01224AC90E659E0FBFE
:1014B000A3E0FAA3E0F9120086FD90E002F09000AC
:1014C000011201A8AAF054F890E003F0EAA3F0900A
:1014D000E659A3E0FA90000312009F90E005F09017
:1014E00000041201A8AAF090E006F0EAA3F090E050
:1014F00086E0FBA3E0FAA3E0F912017DAAF090E0F8
:1015000008F0EAA3F07F08ED14FEEFC39E5023908D
:10151000E659E0FBA3E0FAA3E0F98F82758300129D
:10152000009FFE74022FF582E434E0F583EEF00FA5
:1015300080D574012DF582E434E0F583E4F0740283
:101540002DF582E434E0F583E4F07B017AE0790262
:101550001227B52290E6DB1203FF000000001225DF
:101560007290E6DFEFF090E118E0FCA3E0FDA3E06D
:10157000FEA3E0FF12260190E6E4EEF0A3EFF012E6
:101580002735EF602490E6E0E0FCA3E0FDA3E0FE59
:10159000A3E02401FFE43EFEE43DFDE43CFC122612
:1015A0000190E6E4EEF0A3EFF090E6E0E0FCA3E0CB
:1015B000FDA3E0FEA3E0FF90E6E61203F390E6E46D
:1015C000E0FEA3E07805CEC313CE13D8F9FFE4FC08
:1015D000FD90E6EA1203F390E6E6E0FCA3E0FDA34B
:1015E000E0FEA3E0FF780B120302A3E0F8A3E0F90A
:1015F000A3E0FAA3E04FFFEA4EFEE94DFDE84CFC04
:1016000090E6DB1203F390E6DFE0FF1224AC90E6F5
:10161000DBE0FCA3E0FDA3E0FEA3E0FF2290E0827C
:10162000E090E656F070031225117F807E001221B3
:10163000E990DF62E020E01890E082E070031200A1
:101640000690E64BE0FBA3E0FAA3E0F97D02807A86
:1016500075E1E790E64BE0FBA3E0FAA3E0F91200A6
:1016600086F5D9E4FF90E64BE0FBA3E0FAA3E0F9AE
:10167000120086FEEFC39E500FEFF582758300A324
:1016800012009FF5D90F80DDE4FFAE070FEEC39483
:1016900003502075E1E3E4FE90DF62E090E657F04E
:1016A00020E409AD060EEDC394C840EC90E657E087
:1016B00030E4D790E657E020E41375E1E790E64B7D
:1016C000E0FBA3E0FAA3E0F97D030227F012257204
:1016D00090E658EFF090E6497401F01224AC221223
:1016E000257290E6CDEFF090E084E475F0011201F0
:1016F0006790E124E004F0700690E123E004F090AC
:10170000E1B2E0FBA3E0FAA3E0F9C003C002C0012C
:1017100090E083E0FBA3E0FAA3E0F9D082D083D08D
:10172000E06B7008E965827003EA6583700D90E0F4
:101730008304F0A374E2F0A37461F090E120E0FB75
:10174000A3E0FAA3E0F9C003C002C00190E083E087
:10175000FBA3E0FAA3E0F9D082D083D0E06B70085D
:10176000E965827003EA6583600D1224EB90E11D48
:10177000E4F0A304F08007E490E11DF0A3F090E60C
:10178000CDE0FF1224AC22C0E0C0F0C083C082C014
:10179000D075D000C000C001C002C003C004C005A5
:1017A000C006C00712257290E6BFEFF0E5E955913B
:1017B000A3F053E9FE53E9FD53E9FB53E9F753E97D
:1017C000EF53E9DF53E9BF53E97FE030E303122829
:1017D0003590E6C0E030E50312283890E6C0E030EE
:1017E000E60312283B90E6C0E030E41490E6C2E540
:1017F000E2F090E6C1E5E3F0E0FEA3E0FF12283E50
:10180000539BFC90E6BFE0FF1224ACD007D006D07B
:1018100005D004D003D002D001D000D0D0D082D0E7
:1018200083D0F0D0E032787FE4F6D8FD75810702EE
:10183000186D02200BE493A3F8E493A34003F68011
:1018400001F208DFF48029E493A3F85407240CC8BC
:10185000C333C4540F4420C8834004F45680014667
:10186000F6DFE4800B0102040810204080901FD5B1
:10187000E47E019360BCA3FF543F30E509541FFE92
:10188000E493A360010ECF54C025E060A840B8E403
:1018900093A3FAE493A3F8E493A3C8C582C8CAC586
:1018A00083CAF0A3C8C582C8CAC583CADFE9DEE718
:1018B00080BEC0E0C0F0C083C082C0D075D000C080
:1018C00000C001C002C003C004C005C006C00712AA
:1018D000257290E6CEEFF0E5E730E60EE5E430E77E
:1018E0000953E47F53E7BF122847E5E630E60EE5EB
:1018F000E430E60953E4BF53E6BF12284AE5E53079
:10190000E60EE5E430E50953E4DF53E5BF12285362
:10191000E5E430E40653E4EF12285990E6CEE0FF08
:101920001224ACD007D006D005D004D003D002D00A
:1019300001D000D0D0D082D083D0F0D0E03290E27D
:10194000467410F0A3743DF0A37423F0E4A3F0A355
:10195000F0A3F090E25BE0FCA3E0FDEC90E24CF041
:10196000A3EDF012254812003E7B017AE27946127F
:101970001C3A90E24CE0FEA3E0FDEDFF90E259EE50
:10198000F0A3EFF090E259E0FEA3E0FF12262890CA
:10199000E259E0FEA3E0FF90E64FEEF0A3EFF01275
:1019A000261F1223107F111222B27F641220CB1245
:1019B000265512271502271190E6DEE5E2F090E6A3
:1019C000DDE5E3F0C3A3E09FFF90E6DDE09EFEC30C
:1019D000EF9DEE9C4003A38019C3ED9FFFEC9EFE9C
:1019E00090E6DFF0A3EFF0D39405EE94005016904C
:1019F000E6DEE02405FE90E6DDE0340090E6DBF074
:101A0000A3CEF0801A90E6DDE0FEA3E0FF90E6E0D2
:101A1000E02FFF90E6DFE03E90E6DBF0A3EFF090F2
:101A2000E6DCE0F5DA90E6DBE0F5DB43E54022EFCB
:101A300075F009A4240AF974E135F0FA90E66C74A3
:101A400001F0A3EAF0A3E9F090E663E0FCA3E0FD77
:101A5000A3E0FEA3E0FF90E66CE0FBA3E0FAA3E0C6
:101A6000F912036590E667E0FCA3E0FDA3E0FEA3A6
:101A7000E0FF90E66CE0FBA3E0FAA3E0F99000043D
:101A800012037F90E66BE05401FFE92408F9E43A81
:101A9000FA12008654FE4F1200CC44021200CC020F
:101AA00026A990E25BE0FFA3E090E252CFF0A3EF23
:101AB000F090E2567401F0A374E1F0A37426F09064
:101AC000E256E0FBA3E0FAA3E0F974091200CC901F
:101AD000E256E0FBA3E0FAA3E0F9900001E4F5F0A0
:101AE0001201E090E1B7E0FF04F0900003EF120074
:101AF000DE90000474FFF5F01201E0900006E4F5BA
:101B0000F01201E090007EE41200DE90007FE4120B
:101B100000DE7F002290E660EBF0A3EAF0A3E9F09C
:101B2000A3EDF0E490E667F0A3F090E663E0FF90A9
:101B3000E667E0FCA3E0FDC39F7480F8EC64809846
:101B4000503FED4C600E90E664E0FBA3E0FAA3E0AA
:101B5000F912074B90E660E0FBA3E0FAA3E0F990EE
:101B6000E667E0FEA3E0F5828E8312009FFF121D60
:101B7000F190E668E004F070B190E667E004F08070
:101B8000A92290E655EFF0B40C00504F901B93F84B
:101B9000282873021BB7021BBA021BBD021BC0021E
:101BA0001BC3021BC6021BC9021BCC021BCF021B9C
:101BB000D2021BD5021BD802244F020504021F9D2E
:101BC000020EC10225AA02223002193E02161D028F
:101BD000225202103202004E02257A90E655E0FFB2
:101BE0001226D922C0E0C0F0C083C082C0D075D018
:101BF00000C000C001C002C003C004C005C007E4AB
:101C0000FDFC12257290E6CCEFF0E58620E003C2E1
:101C1000E90D90E6CCE0FF1224ACED4C60031228F5
:101C200044D007D005D004D003D002D001D000D0DA
:101C3000D0D082D083D0F0D0E03290000712009F45
:101C400090DF4AF090000612009F90DF49F090006C
:101C50000512009F90DF48F090000412009F90DF73
:101C600047F090000312009F90DF46F090000212B0
:101C7000009F90DF45F090000112009F90DF44F03C
:101C800012008690DF43F022C0E0C0F0C083C08223
:101C9000C0D075D000C000C001C002C003C004C0E5
:101CA00005C006C00712257290E6B7EFF0C2891290
:101CB000283290E6B7E0FF1224ACD007D006D0055A
:101CC000D004D003D002D001D000D0D0D082D083B5
:101CD000D0F0D0E03212257290E656EFF090E23F5D
:101CE000E0FCA3E0FDA3E0FEA3E0FF90E114E0F838
:101CF000A3E0F9A3E0FAA3E02FFFEA3EFEE93DFDF1
:101D0000E83CFC90E6571203F390E656E0FF1224FD
:101D1000ACA3E0FCA3E0FDA3E0FEA3E0FF2290E67D
:101D20007C1203F390E680E0FCA3E0FDA3E0FEA3B9
:101D3000E0FF90E24E1203F390E684E090E000F0C2
:101D400090E680E0FCA3E0FDA3E0FEA3E0FF90E6C8
:101D5000891203F390E67CE0FCA3E0FDA3E0FEA380
:101D6000E0FF02219B1228207BFF7A0E796A122560
:101D7000FD90E1B6740BF0FF1227457BFF7A0E79D8
:101D80005C1225FD90E1B6E0FF1227497BFF7A0E39
:101D900079671225FD1225B97BFF7A0E798012250D
:101DA000FD7FA07E867D017C000222D290E256E07B
:101DB000FBA3E0FAA3E0F990000312009F04547F14
:101DC000FF9000031200DE90E67AF01228117BFFEC
:101DD0007A0D796B1225FD90E2561224B290E67AC4
:101DE000E0540F70097BFF7A0D792C1225FD022635
:101DF0008BAD07ED54F0FFE4C4F854F0C8EFC454C1
:101E00000F48FEC3940AEE50042430800224379019
:101E1000E67BF0ED540FFEC3940AEE5004243080AC
:101E200002243790E67CF0E490E67DF07B017AE6D0
:101E3000797B12074B2290E68D1203F312257290E4
:101E4000E695EFF090E68DE0FCA3E0FDA3E0FEA3B5
:101E5000E0FF90E1141203F390E691E0FCA3E0FDB3
:101E6000A3E0FEA3E0FF90E23F1203F312095C90AF
:101E7000E695E0FF0224ACC0E0C0F0C083C082C0A1
:101E8000D075D000C000C001C002C003C004C005AE
:101E9000C006C007C28BAFC1122841D007D006D000
:101EA00005D004D003D002D001D000D0D0D082D051
:101EB00083D0F0D0E03290E118E0FCA3E0FDA3E095
:101EC000FEA3E02401FFE43EFEE43DFDE43CFC9083
:101ED000E1181203F390E118E0FCA3E0FDA3E0FE9B
:101EE000A3E0FFE4FBFAF9F8C31202F17003122831
:101EF000562290E0837401F0A374E2F0A37461F0C1
:101F0000F990E1207401F0A374E2F0A3E9F090E10C
:101F1000B27401F0A374E6F0A37449F0E490E11DFB
:101F2000F0A3F090E123F0A3F0FF2212217390E6DA
:101F300053EFF0121EF212259AEFF01224771225B9
:101F40009AEFF012246312259AEFF0120016122570
:101F50009AEFF012001612259AEFF0121AA212252B
:101F60009AEFF02290E651E0F4602FE090E655F011
:101F700024A6F582E434E1F583E0FF90E651F0BF5A
:101F8000FF0690E11374FFF090E655E0FF24A6F5FC
:101F900082E434E1F58374FFF0227FFF2290E000B9
:101FA000E0702F122739C004C005C006C00790E2B8
:101FB0004EE0FCA3E0FDA3E0FEA3E0FF90E680126C
:101FC00003F3E490E684F0D007D006D005D00412E5
:101FD0001D1E02281742E25B000141E64A0041E271
:101FE000550141E1250041E25D0041E2380041E157
:101FF000B70141E0820041E6490041E11F0041E6AE
:102000004E0041E2540041E089000012257290E642
:1020100052EFF01227BD1226F51226F9EF70FA12D0
:102020001F2B1226F9EF70FA90E652E0FF1224AC53
:1020300012282912282312282F7EFF7FFF2290E6E4
:1020400057EBF0A3EAF0A3E9F0A3EDF07BFF7006F5
:102050007A0D794180157A0D79551225FD90E65A51
:10206000E0FF1224C17BFF7A0D792C1225FD22900E
:10207000E65DEFF012273190E6631203F390E65E1F
:10208000E0FCA3E0FDA3E0FEA3E0FF90E6671203FF
:10209000F3E490E66BF090E65DE0FF021A2FC004D7
:1020A000C005C006C00790E678E0FCA3E0FDA3E011
:1020B000FEA3E0FF90E6801203F390E6847401F043
:1020C000D007D006D005D004021D1EEF75F01FA466
:1020D000FFAEF07C007D64120112EF541FFF90DF11
:1020E0000AE0FCA3E054E0FDECFEED4FFF90DF0AB8
:1020F000EEF0A3EFF022AE0712232DEF701F90E653
:1021000051E0B4FF02800D90E113E024A6F582E4D3
:1021100034E1F583EEF090E113F07F01227F00229D
:1021200012257290E654EFF0121F6490E653EFF020
:10213000BFFF0512282C80F090E654E0FF1224AC7B
:1021400090E653E0FF121B8280D6AE0712257290F4
:10215000E6CFEFF0AF061220F6EF60047F008002BA
:102160007F0590E6D0EFF090E6CFE0FF1224ACA31D
:10217000E0FF2253F1FE43F30CE5C65440C41313B1
:102180005403240CF5C575C2D84386C043C482C22B
:10219000E9C28BD2AA439A047F0022C004C005C0C2
:1021A00006C00790E689E0FCA3E0FDA3E0FEA3E003
:1021B000FF90E6911203F3D007D006D005D00402B9
:1021C0001E36C004C005C006C00790E670E0FCA340
:1021D000E0FDA3E0FEA3E0FF90E6781203F3D00752
:1021E000D006D005D00402209EEF7803CEC313CED4
:1021F00013D8F9FFE4FDFCC3ED9FEC9E500EE4FB09
:102200000BEBB420FB0DBD00010C80EB2290E661CE
:10221000EEF0A3EFF0EEFF121DF1C006C00790E64E
:1022200061A3E0FF121DF1D0E02FFFD0E03EFE22BF
:1022300012257290E656EFF090E11CE0FE1224ACFD
:1022400090E243E0FBA3E0FAA3E0F9AF06AD07029A
:1022500027F312236390E082E0600E12000690E103
:10226000B5E0FF1222B202251190E1B5E0FF122283
:10227000B222C002C00190E65DE0F9A3E0FAA3E05B
:1022800090E664C9F0A3EAF0A3E9F0D001D002021D
:102290001B15E4FFFEFDFC90E23FE0F8A3E0F9A38C
:1022A000E0FAA3E0FBC31202F17003022850120906
:1022B0005C22EF24F5FFE434FFFE7C007D05120173
:1022C0000074652FFF74013E444090DF10F0A3EFCF
:1022D000F02290E6591203F390E659E0FCA3E0FDEA
:1022E000A3E0FEA3E0FF90E65E1203F3E4FF02200A
:1022F0006F7BFF7A0E79901226FD90E11FE0700946
:1023000090E64EE0700312267990E64E7401F022BA
:1023100090DF02E054F7F0A3E04420F090DF4F7428
:102320007FF090DF0A7405F0A3740FF02274A62FDB
:10233000F582E434E1F583E0B4FF0790E113E0B502
:1023400007047F0180027F00227E007F0C7DFF7BDF
:10235000017AE179A612045690E65174FFF090E1FB
:1023600013F022E4FA90DF62E030E410EAC3943222
:10237000500A7F647E001221E90A80E922EFC394AB
:102380000B4006EFD3941A40037F012290E1B5EF92
:10239000F01226AF7F002212257290E659EFF0432B
:1023A000912053E9DF439A01E0FF1224AC7F002221
:1023B00012257290E656EFF043914053E9BF439ADD
:1023C00001E0FF1224AC7F002212017DFFAEF090ED
:1023D000E259EEF0A3EFF090DF4DEEF0A3EFF07FC7
:1023E000002290E11FE0701290DF53E0D394004090
:1023F0000990E11F7401F012267F2253BEFC53BEE8
:10240000FBE5BE30E6FB7408FFF5C61226F17F003F
:10241000221227ED1227E41227E11227D81227CC27
:102420001227C97F002290E649E06005E4F0022609
:10243000C17BFF7A0E79A61226FD2290E65912255D
:102440006AA3EFF090E11CEDF01224AC02267312A7
:1024500025C390E256E0FBA3E0FAA3E0F91227B10E
:102460000227951226B590E25E7401F0A374E1F0A4
:10247000A374B8F07F002290E23C7401F0A374E0F2
:10248000F0A3748AF01226BB7F0022121F64EFB4FF
:10249000FF07E490E653F0FF22121B827F01221215
:1024A000257290E656EFF0E490E11FF0EF24FF92E2
:1024B000AF22E0FBA3E0FAA3E0900003F912009F33
:1024C000FF121DF12290E679EFF07003021DAC902F
:1024D000E679E0FF12269122EF75F009A42412F5A7
:1024E00082E434E1F583E054FDF02290E083E0FBE8
:1024F000A3E0FAA3E0F9120086FF1226E4221225D7
:102500007290E659EFF05391DFE0FF1224AC7F00A8
:102510002275E1E675E1E612270575E1E290E082B9
:102520007401F02212257290E656EFF0C289D2A80B
:102530001224AC7F002290E6EFE5E2F090E6EEE5B3
:10254000E3F0E0FEA3E0FF2290DF17E054F7F0E0B5
:102550004408F0E5E920E7FB2290E64BEBF0A3EA24
:10256000F0A3E9F01226A37F0022EBF0A3EAF0A388
:10257000E9F0A2AFE433FFC2AF2290E64BE0FBA349
:10258000E0FAA3E0F9E4FD0227F012257290E6CA12
:10259000EFF0122808E0FF0224ACAD0790E653E00C
:1025A000FFEFB5050280027F012212271990E08615
:1025B000EBF0A3EAF0A3E9F02290E1257401F0909A
:1025C000E25DF01227892290DF177404F090DF1784
:1025D000E020E4F92290E082E060031200067F0030
:1025E00022F91201A8FFAEF012220D2290E001EFB5
:1025F000F01228110226C77BFF7A0D792A12074BA9
:102600002290E6E01203F31225362290DF02E04426
:1026100008F07F002290DF02E054F7F07F00229064
:10262000DF4BEEF0A3EFF02290DF4DEEF0A3EFF0E2
:10263000221225C71225117F00221223631226556C
:102640007F002212282953BEFC02282690E6C3EE02
:10265000F0A3EFF02290DF17E04408F022AE07125B
:1026600026CD0225EC7B017AE27959227B017AE2C0
:102670007946227F0512214A227F0A12214A227FAF
:102680000912214A22E5E45410FF22E4FF12214AF4
:102690002290E67AEFF022122731021291122511D0
:1026A0007F00227F0712214A227F0312214A227FC4
:1026B0000812214A227F0412214A227F0612214A4F
:1026C000227F0B12214A227F0112214A2290E6CA60
:1026D000EFF0227F0212214A2290E656EFF022E428
:1026E000FF0224D88FC17F002243FE082243FE014F
:1026F00022122411221223FB2212248B2212074BB6
:10270000221224FE22122397221213A522120B3426
:1027100022122524221223B0221226652253E5BF5D
:10272000221215542212272122122725221227298C
:102730002212272D2212268522121CD52212237D39
:102740002212273D22122741221211742212266CD6
:102750002212274D221227512212260B221227590C
:102760002212275D221226152212276522122769BE
:10277000221223C922122771221227752212271929
:102780002212277D22122631221227852212263A72
:102790002212278D221227912212269D221227997A
:1027A0002212279D221225D5221227A5221227A9FF
:1027B0002212148A221225592212265D220223494E
:1027C000C293220227C00227C30227C6020012C2F8
:1027D00090220227CF0227D20227D50226E902271C
:1027E000DB0227DE02004A0226ED0227E70227EA83
:1027F00002243B02203E02271D0227F60227F9028F
:1028000027FC0227FFB2902202280502258A02280F
:102810000B02280E0219B802269702008102281A1C
:1028200002281D021D65C2AF22D2AF22022643023A
:1028300021200222F10200820223E2022426022643
:102840004C0227B90216DF02285C02285D0226D35B
:0F28500002284D02229202285E021EB622222288
:00000001FF
