:10000000021821021C8375E1E51226E4E490E082E7
:10001000F02222021E2BE4F5E6F5E7F5E2F5E353C4
:10002000E4F353E40F43E504D2B943D84043E54039
:10003000E5E454FC4401F5E47F0022021BDF53BEDB
:10004000FB53C6FEE5BE30E6FB22220218AD90E06F
:1000500082E0600E12000675E1E675E1E612250207
:10006000800675E1E675E1E612256390E656EFF04D
:10007000E490E64EF012249D7BFF7A0D790D022666
:10008000E02222021782BB010689828A83E0225085
:1000900002E722BBFE02E32289828A83E49322BB29
:1000A000010CE58229F582E5833AF583E0225006CA
:1000B000E92582F8E622BBFE06E92582F8E222E580
:1000C0008229F582E5833AF583E49322BB01068910
:1000D000828A83F0225002F722BBFE01F322F8BB92
:1000E000010DE58229F582E5833AF583E8F0225097
:1000F00006E92582C8F622BBFE05E92582C8F22260
:10010000EF8DF0A4A8F0CF8CF0A428CE8DF0A42E13
:10011000FE22BC000BBE0029EF8DF084FFADF02263
:10012000E4CCF875F008EF2FFFEE33FEEC33FCEE75
:100130009DEC984005FCEE9DFE0FD5F0E9E4CEFD68
:1001400022EDF8F5F0EE8420D21CFEADF075F0083B
:10015000EF2FFFED33FD4007985006D5F0F222C394
:1001600098FD0FD5F0EA22C5F0F8A3E028F0C5F01D
:10017000F8E582158270021583E038F022BB010A8F
:1001800089828A83E0F5F0A3E022500687F009E730
:100190001922BBFE07E3F5F009E3192289828A835D
:1001A000E493F5F074019322BB0110E58229F582F6
:1001B000E5833AF583E0F5F0A3E0225009E92582D2
:1001C000F886F008E622BBFE0AE92582F8E2F5F09F
:1001D00008E222E5832AF583E993F5F0A3E9932267
:1001E000F8BB0111E58229F582E5833AF583E8F051
:1001F000E5F0A3F0225009E92582C8F608A6F0220E
:10020000BBFE09E92582C8F2E5F008F22275F00884
:10021000758200EF2FFFEE33FECD33CDCC33CCC54E
:100220008233C5829BED9AEC99E58298400CF58269
:10023000EE9BFEED9AFDEC99FC0FD5F0D6E4CEFBDB
:10024000E4CDFAE4CCF9A88222B800C1B90059BAC9
:10025000002DEC8BF084CFCECDFCE5F0CBF97818F7
:10026000EF2FFFEE33FEED33FDEC33FCEB33FB10F1
:10027000D703994004EB99FB0FD8E5E4F9FA22780B
:1002800018EF2FFFEE33FEED33FDEC33FCC933C91D
:1002900010D7059BE99A4007EC9BFCE99AF90FD827
:1002A000E0E4C9FAE4CCFB2275F010EF2FFFEE3347
:1002B000FEED33FDCC33CCC833C810D7079BEC9A86
:1002C000E899400AED9BFDEC9AFCE899F80FD5F00F
:1002D000DAE4CDFBE4CCFAE4C8F922EB9FF5F0EACE
:1002E0009E42F0E99D42F0EC6480C864809845F03D
:1002F00022EB9FF5F0EA9E42F0E99D42F0E89C4532
:10030000F022E8600FEFC333FFEE33FEED33FDEC78
:1003100033FCD8F122BB010789828A8302048E5004
:1003200005E9F8020482BBFE05E9F802049A898215
:100330008A830204A6BB010DE58229F582E5833A92
:10034000F58302048E5007E92582F8020482BBFE81
:1003500007E92582F802049AE58229F582E5833AC5
:10036000F5830204A6BB010789828A830203F35046
:1003700005E9F80204ECBBFE05E9F80204F822BB2B
:10038000010DE58229F582E5833AF5830203F350F6
:1003900007E92582F80204ECBBFE07E92582F80292
:1003A00004F822BB010789828A830204C35005E94D
:1003B000F80204B6BBFE05E9F80204CF89828A83FD
:1003C0000204DCBB010DE58229F582E5833AF58361
:1003D0000204C35007E92582F80204B6BBFE07E910
:1003E0002582F80204CFE58229F582E5833AF58378
:1003F0000204DCECF0A3EDF0A3EEF0A3EFF022A8F2
:10040000828583F0D083D08212041612041612045F
:1004100016120416E473E493A3C583C5F0C583C81C
:10042000C582C8F0A3C583C5F0C583C8C582C822EC
:10043000D083D082F8E4937012740193700DA3A35B
:1004400093F8740193F5828883E47374029368606F
:10045000EFA3A3A380DFEF4E6012EF60010EEDBBB0
:10046000010B89828A83F0A3DFFCDEFA2289F05037
:1004700007F709DFFCA9F022BBFEFCF309DFFCA9AA
:10048000F022E6FC08E6FD08E6FE08E6FF22E0FCB6
:10049000A3E0FDA3E0FEA3E0FF22E2FC08E2FD08EA
:1004A000E2FE08E2FF22E493FC740193FD740293E0
:1004B000FE740393FF22E6FB08E6F908E6FA08E675
:1004C000CBF822E0F8A3E0F9A3E0FAA3E0FB22E2F4
:1004D000FB08E2F908E2FA08E2CBF822E493F874A8
:1004E0000193F9740293FA740393FB22ECF608ED7E
:1004F000F608EEF608EFF622ECF208EDF208EEF25E
:1005000008EFF22212256390E658EFF090E001E048
:1005100090E656F012249DE012043005430D06FCCF
:100520002B070F2D05FB61062862065D63068364B9
:1005300006C16506E06D05987205CD730546740029
:1005400000074702061F90E1B7E0FF04F090E25673
:10055000E0FBA3E0FAA3E0F9900003EF1200DE7BDA
:10056000FF7A0D79781225E090E65D74FFF0A374B0
:100570000DF0A37435F07B017AE179267D12122209
:10058000637BFF7A0D79371225E090E256E0FBA3FA
:10059000E0FAA3E0F902279890E125E070097BFFDB
:1005A0007A0D798E02075290E25DE0600EE4F07BF6
:1005B000FF7A0D799D1225E002279490E25D740187
:1005C000F07BFF7A0D79B31225E002278890E125B0
:1005D000E06012E4F090E25DF012277C7BFF7A0D80
:1005E00079C802075290E1257401F090E25DF012A3
:1005F00027707BFF7A0D79DB020752122764120104
:100600007DFF90E252E5F0F0A3EFF07BFF7A0D79E9
:10061000ED1225E090E252E0FEA3E0FF1225CB7B35
:10062000FF7A0D793702075290E25BE0FFA3E0907A
:10063000E252CFF0A3EFF07BFF7A0D79FD1225E0B7
:1006400090E25BE0FEA3E0FF1225CB7BFF7A0D7901
:10065000371225E07B017AE2795202275C90E2555D
:10066000E0600EE4F07BFF7A0E79101225E002279D
:100670005090E2557401F07BFF7A0E79281225E044
:1006800002274412273890E239EBF0A3EAF0A3E9FD
:10069000F07BFF7A0E793F1225E090E65D74FFF063
:1006A000A3740DF0A37435F090E239E0FBA3E0FAF7
:1006B000A3E0F97D081222637BFF7A0D79370207E8
:1006C0005290E64AE0600BE4F07BFF7A0E7952022A
:1006D000075290E64A7401F07BFF7A0E795D8072D2
:1006E00090E238E06005E4F00226C290E23874013E
:1006F000F07F107E277D007C000222C390E1B6E0EF
:10070000FFB41A067E0B7F0B8016EF04FF8011905A
:10071000E1B6E0FFB40B067E1A7F1A8003EF14FFE8
:1007200090E1B6EFF07BFF7A0E79671225E090E159
:10073000B6E0FF12272C7BFF7A0E79721225E0902B
:10074000E1B6E0FF022728E490E657F07B017AE665
:1007500079561225E02290E6C312255BA3EFF0E460
:10076000A3F0A3F0A3F090E083E0FBA3E0FAA3E002
:10077000F9C003C002C00190E120A3E0FAA3E0F9B0
:10078000C3D082D083D0E0E99582EA9583500302FA
:10079000085A90E1B2E0FBA3E0FAA3E0F9C003C07D
:1007A00002C00190E120A3E0FAA3E0F9C3D082D017
:1007B00083D0E0E99582EA9583504490E6C3E0FB5C
:1007C000A3E0FAA3E0F9120086FF603390E120E095
:1007D000FBA3E0FAA3E0F9EF1200CC90E121E4756D
:1007E000F00112016790E6C4E475F0011201679010
:1007F000E6C9E004F0709B90E6C8E004F0809390B6
:10080000E1B2E0FBA3E0FAA3E0F9C003C002C0013B
:1008100090E120E0FBA3E0FAA3E0F9D082D083D0FE
:10082000E06B7008E965827003EA658370117B01F3
:1008300090E12004F0A374E2F0A37461F0801B90B7
:10084000E11DE07002A3E0700B1224DC90E11DE4D6
:10085000F0A304F090E6C77401F090E6C7E06003EF
:1008600002092F90E083E0FBA3E0FAA3E0F9C003C4
:10087000C002C00190E120A3E0FAA3E0F9C3D08256
:10088000D083D0E0E99582EA9583504490E6C3E0B6
:10089000FBA3E0FAA3E0F9120086FF603390E120A9
:1008A000E0FBA3E0FAA3E0F9EF1200CC90E121E431
:1008B00075F00112016790E6C4E475F0011201675A
:1008C00090E6C9E004F0709B90E6C8E004F08093E5
:1008D00090E11DE07002A3E0700B1224DC90E11D9A
:1008E000E4F0A304F090E083E0FBA3E0FAA3E0F9D6
:1008F000C003C002C00190E120E0FBA3E0FAA3E046
:10090000F9D082D083D0E06B7008E965827003EA89
:100910006583701B90E11DE07002A3E0700B122450
:10092000DC90E11DE4F0A304F090E6C77401F090C0
:10093000E6C7E0701B90E11DE07002A3E0700B12AF
:1009400024DC90E11DE4F0A304F090E6C77401F00C
:1009500090E6C8E0FEA3E0FDAC0690E6C6E0FF121C
:10096000249DAE04AF052212270490E6CF1203F3B4
:1009700090E23FE0FCA3E0FDA3E0FEA3E0FF90E1F6
:1009800014E0F8A3E0F9A3E0FAA3E02FFFEA3EFEAB
:10099000E93DFDE83CFC90E6D31203F390E6CFE09E
:1009A000F8A3E0F9A3E0FAA3E0FBA3E0FCA3E0FDD9
:1009B000A3E0FEA3E0C39BFFEE9AFEED99FDEC9849
:1009C000FCA31203F390E6CFE0FCA3E0FDA3E0FE5E
:1009D000A3E0FF90E114E0F8A3E0F9A3E0FAA3E0BC
:1009E000FBD31202F1503F90E114E0FCA3E0FDA321
:1009F000E0FEA3E0FF90E6D3E0F8A3E0F9A3E0FA7D
:100A0000A3E0FBC31202F1406390E6CFE0FCA3E059
:100A1000FDA3E0FEA3E0FFA3E0F8A3A3A3E0D312AD
:100A200002F15048803C90E114E0FCA3E0FDA3E01B
:100A3000FEA3E0FF90E6D3E0F8A3E0F9A3E0FAA379
:100A4000E0FBC31202F1501A90E6CFE0FCA3E0FDF8
:100A5000A3E0FEA3E0FFA3E0F8A3A3A3E01202F14A
:100A6000500A90E6D71203FF00000000E4FF7E0466
:100A7000FDFC90E6D7E0F8A3E0F9A3E0FAA3E0FBE1
:100A8000D31202F1404E90E6CFE0FCA3E0FDA3E0DC
:100A9000FEA3E02400FFEE3404FEE43DFDE43CFC54
:100AA00090E1141203F390E6D7E0FCA3E0FDA3E08D
:100AB000FEA3E02400FFEE34FCFEED34FFFDEC3439
:100AC000FFFC90E23F1203F390E6D71203FF000011
:100AD0000400803890E114E0FCA3E0FDA3E0FEA355
:100AE000E0FF90E23FE0F8A3E0F9A3E0FAA3E0FB27
:100AF000EF2BFFEE3AFEED39FDEC38FC90E11412DD
:100B000003F390E23F1203FF0000000090E6CFA342
:100B1000A3E0FEA3E07805C333CE33CED8F9FFC0FF
:100B200006C00790E6D7A3A3E0FEA3E07805C33391
:100B3000CE33CED8F9FDAC06D007D0060227FB9005
:100B4000E657EBF0A3EAF0A3E9F090E657E0FBA349
:100B5000E0FAA3E0F9120086FF90E65AF090E25E18
:100B6000E0FBA3E0FAA3E0F9EF1200CC90E657E037
:100B7000FBA3E0FAA3E0F990000212009FFF90E6C9
:100B80005BE4F0A3EFF090000112009FFD7C009069
:100B9000E65CE0FEE42DFFEC3EFE90E65BF0A3EFAA
:100BA000F090E25EE0FBA3E0FAA3E0F9900001EE32
:100BB0008FF01201E090E657E0FBA3E0FAA3E0F922
:100BC00090000312009FFF90E25EE0FBA3E0FAA317
:100BD000E0F9900003EF1200DE90E657E0FBA3E09F
:100BE000FAA3E0F990000512009FFF90E65BE4F0A5
:100BF000A3EFF090000412009FFD90E65CE0FEE49D
:100C00002DFFEC3EFE90E65BF0A3EFF090E25EE09D
:100C1000FBA3E0FAA3E0F9900004EE8FF01201E0EC
:100C200090E657E0FBA3E0FAA3E0F990000712007A
:100C30009FFF90E65BE4F0A3EFF090000612009FA8
:100C4000FD90E65CE0FEE42DFFEC3EFE90E65BF0FE
:100C5000A3EFF090E25EE0FBA3E0FAA3E0F99000DE
:100C600006EE8FF01201E07F0890E65AE0FE14FDD8
:100C7000EFC39D502B90E657E0FBA3E0FAA3E0F909
:100C80008F8275830012009FFD90E25EE0FBA3E07F
:100C9000FAA3E0F98F82758300ED1200DE0F80C9A0
:100CA000EE24FFFDE434FFFC90E657E0FBA3E0FAFE
:100CB000A3E0F98D828C8312009FFF90E25EE0FB3F
:100CC000A3E0FAA3E0F990007EEF1200DE90E65771
:100CD000E0FBA3E0FAA3E0F98E8275830012009F87
:100CE000FF90E25EE0FBA3E0FAA3E0F990007FEF63
:100CF0001200DE1226EC90E25EEBF0A3EAF0A3E92C
:100D0000F090E657E0FBA3E0FAA3E0F9224D41435F
:100D10003A2042756666657220666C757368656414
:100D20000D0A005265636569766564207061636BC6
:100D300065743A200020000D0A004D41433A2043DB
:100D40005243204661696C65640A0D005472616EFD
:100D5000736D697373696F6E20646F6E650D0A0041
:100D60005472616E736D697373696F6E2066616929
:100D70006C65643A20003A005472616E736D697458
:100D800074696E67207061636B65743A200052610C
:100D900064696F206973206F66660D0A005265638F
:100DA0006569766572207475726E6564206F66661B
:100DB0000D0A005265636569766572207475726EFE
:100DC0006564206F6E0D0A00526164696F2074754E
:100DD000726E6564206F66660D0A00526164696F09
:100DE000207475726E6564206F6E0D0A0053686F13
:100DF000727420616464726573733A200053657481
:100E00002073686F7274416464726573733A200072
:100E1000416464726573732066696C746572696E8F
:100E200067206F66660D0A00416464726573732003
:100E300066696C746572696E67206F6E0D0A004595
:100E40007874656E64656420616464726573733A76
:100E500020004563686F206F66660D0A0045636871
:100E60006F206F6E0D0A004368616E6E656C203AEC
:100E700020000A0D0050726F6772616D20696E6903
:100E80007469616C697A65640A0D004D41433A20CA
:100E9000427566666572206F76657272756E0D0AB0
:100EA000004D41433A20556E7363686564756C6507
:100EB00064207472616E736D69740A001227149055
:100EC000E6561203F390E65A1203FF7FFFFFFFE49A
:100ED00090E65EF01227E9A3F0A3F090E65FE0FE53
:100EE000A3E0FFC39401EE94004003020FD77C00FF
:100EF0007D09120100740A2FF974E13EFA7B01A307
:100F0000EBF0A3EAF0A3E9F090000812009FFFC302
:100F10001320E003020FC690E661E0FBA3E0FAA312
:100F2000E0F91203A390E656E0FCA3E0FDA3E0FE87
:100F3000A3E0C39BFFEE9AFEED99FDEC98FC90E6D2
:100F4000641203F390E661E0FBA3E0FAA3E0F990FA
:100F50000004120335C004C005C006C00790E66453
:100F6000E0FCA3E0FDA3E0FEA3E0FBAA06A905A820
:100F700004D007D006D005D004C3EF9BFFEE9AFE45
:100F8000ED99FDEC98FCA31203F390E65AE0FCA364
:100F9000E0FDA3E0FEA3E0FF90E668E0F8A3E0F93F
:100FA000A3E0FAA3E0FBC31202DB501A90E668E06C
:100FB000FCA3E0FDA3E0FEA3E0FF90E65A1203F3DA
:100FC00090E65E7401F090E660E004F0700690E652
:100FD0005FE004F0020EDB90E65EE0604FE4FFFEAF
:100FE000FDFC90E65AE0F8A3E0F9A3E0FAA3E0FBE9
:100FF000D31202DB501190E656E0FCA3E0FDA3E023
:10100000FEA3E0FF02128C90E65AE0FCA3E0FDA3F1
:10101000E0FEA3E0FF90E6701203F390E656E0FCDA
:10102000A3E0FDA3E0FEA3E0FF1221B32290E2546F
:10103000E0702BE5D9F0E0FFC3947F501190E23CC3
:10104000E0FBA3E0FAA3E0F9EF1200CC8010122637
:101050005C122490E490E254F090E089F02290DF5A
:1010600053E0FF90E254E0D39F403A12256390E6AC
:1010700056EFF090E64EE0700990E089E0D3940AD4
:10108000401212265CE490E11FF090E254F090E0F0
:1010900089F0800912266290E089E004F090E6561B
:1010A000E0FF02249DE490E089F0FF90E254E0FE2E
:1010B000EFC39E504490DF53E0FD94004022ED9436
:1010C00081501DEF2401FDE433FC90E23CE0FBA3E2
:1010D000E0FAA3E0F98D828C83E5D91200DE801658
:1010E00090E23CE0FBA3E0FAA3E0F98E8275830076
:1010F000E41200DE80030F80B290E23CE0FBA3E04C
:10110000FAA3E0F990E254E0F58275830012009FA3
:10111000FFE490E254F0EF30E7101226F090E23C4A
:10112000EBF0A3EAF0A3E9F0800F7BFF7A0D793AA8
:101130001226E012249012265C12256390E656EFE8
:10114000F090DF53E0FFD39400400AEF9481500504
:10115000122662800EE490E11FF090E64EE06003FC
:1011600012265C90E656E0FF12249D53E9DF22E44C
:1011700090E659F090E65EF0FCFDFE90E66012030A
:10118000F3E47B64FAF9F890E660E0FCA3E0FDA3E9
:10119000E0FEA3E0FF12024990E65FEFF0700690D8
:1011A000E659E0604790E65FE02430FF90E65EE0BD
:1011B000245AF582E434E6F583EFF090E65EE0042D
:1011C000F090E660E0FCA3E0FDA3E0FEA3E0FFE416
:1011D0007B64FAF9F8120249AC00AD01AE02AF032C
:1011E00090E6601203F390E6597401F0E47B0AFA8A
:1011F000F9F890E660E0FCA3E0FDA3E0FEA3E0FFC9
:1012000012024990E65FEFF0700690E659E0604701
:1012100090E65FE02430FF90E65EE0245AF582E439
:1012200034E6F583EFF090E65EE004F090E660E0EF
:10123000FCA3E0FDA3E0FEA3E0FFE47B0AFAF9F8DB
:10124000120249AC00AD01AE02AF0390E66012039A
:10125000F390E6597401F090E660A3A3A3E0243074
:10126000FF90E65EE0245AF582E434E6F583EFF081
:1012700090E65EE004F0E0245AF582E434E6F5837B
:10128000E4F07B017AE6795A1207562290E66C1256
:1012900003F3E490E670F0A3F090E670E0FEA3E0C4
:1012A000FFC39401EE9400400302139D7C007D096E
:1012B000120100740A2FF974E13EFA7B01A3EBF0EE
:1012C000A3EAF0A3E9F090000812009FFFC31320E7
:1012D000E00302138C90E672E0FBA3E0FAA3E0F9CE
:1012E0001203A390E66CE0FCA3E0FDA3E0FEA3E004
:1012F000C39BFFEE9AFEED99FDEC98FC90E675120B
:1013000003F390E672E0FBA3E0FAA3E0F990000497
:1013100012033590E675E0F8A3E0F9A3E0FAA3E044
:10132000FBC31202F1406590E672E0FBA3E0FAA372
:10133000E0F990000812009F30E011E92408F9E478
:101340003AFA12008654FD1200CC803590E672E025
:10135000FBA3E0FAA3E0F9C003C002C00112031529
:1013600090E672A3A3E09000041203C3EF2BFFEEFC
:101370003AFEED39FDEC38FCD001D002D003120367
:101380006590E670A3E0FF1224B6801190E671E04C
:1013900004F0700690E670E004F0021299022680D4
:1013A00090E65DEBF0A3EAF0A3E9F07BFF7A0D791C
:1013B000231225E090E65DE0FBA3E0FAA3E0F9123A
:1013C0000086FF1224B21225DA90E65DE0FBA3E06E
:1013D000FAA3E09000011225C41225DA90E65D120E
:1013E00024A31225DA90E65DE0FBA3E0FAA3E090E7
:1013F00000041225C41225DA90E65DE0FBA3E0FAB2
:10140000A3E0F99000061225C51225DAE490E66003
:10141000F090E65DE0FBA3E0FAA3E0F91200862479
:10142000F7FF90E660E0FEC39F5021E92408F9E44D
:101430003AFAEE7E0029F9EE3AFA120086FF1224FB
:10144000B21225DA90E660E004F080C590E65DE037
:10145000FBA3E0FAA3E090007E1224AD1225DA90FF
:10146000E65DE0FBA3E0FAA3E0F990007F1224AE72
:101470007BFF7A0D79371225E090E65DE0FBA3E073
:10148000FAA3E0F92290E65912255BA3EFF090E66B
:1014900059E0F9A3E0FAA3E090E243C9F0A3EAF02F
:1014A000A3E9F012249D90E659E0FBA3E0FAA3E043
:1014B000F9120086FD90E002F09000011201A8AA46
:1014C000F054F890E003F0EAA3F090E659A3E0FAB4
:1014D00090000312009F90E005F09000041201A814
:1014E000AAF090E006F0EAA3F090E086E0FBA3E02B
:1014F000FAA3E0F912017DAAF090E008F0EAA3F067
:101500007F08ED14FEEFC39E502390E659E0FBA345
:10151000E0FAA3E0F98F8275830012009FFE740247
:101520002FF582E434E0F583EEF00F80D574012DC1
:10153000F582E434E0F583E4F074022DF582E434BE
:10154000E0F583E4F07B017AE0790212279C229097
:10155000E6DB1203FF0000000012256390E6DFEFD8
:10156000F090E118E0FCA3E0FDA3E0FEA3E0FF1291
:1015700025E490E6E4EEF0A3EFF0122718EF6024E4
:1015800090E6E0E0FCA3E0FDA3E0FEA3E02401FF81
:10159000E43EFEE43DFDE43CFC1225E490E6E4EE8E
:1015A000F0A3EFF090E6E0E0FCA3E0FDA3E0FEA3F3
:1015B000E0FF90E6E61203F390E6E4E0FEA3E078B5
:1015C00005CEC313CE13D8F9FFE4FCFD90E6EA1272
:1015D00003F390E6E6E0FCA3E0FDA3E0FEA3E0FF5A
:1015E000780B120302A3E0F8A3E0F9A3E0FAA3E06A
:1015F0004FFFEA4EFEE94DFDE84CFC90E6DB12039E
:10160000F390E6DFE0FF12249D90E6DBE0FCA3E030
:10161000FDA3E0FEA3E0FF2290E082E090E656F01A
:1016200070031225027F807E001221DA90DF62E0D3
:1016300020E01890E082E0700312000690E64BE094
:10164000FBA3E0FAA3E0F97D02807A75E1E790E67A
:101650004BE0FBA3E0FAA3E0F9120086F5D9E4FF22
:1016600090E64BE0FBA3E0FAA3E0F9120086FEEF60
:10167000C39E500FEFF582758300A312009FF5D92A
:101680000F80DDE4FFAE070FEEC39403502075E139
:10169000E3E4FE90DF62E090E657F020E409AD0657
:1016A0000EEDC394C840EC90E657E030E4D790E6E6
:1016B00057E020E41375E1E790E64BE0FBA3E0FA86
:1016C000A3E0F97D030227D712256390E658EFF0D7
:1016D00090E6497401F012249D2212256390E6CD14
:1016E000EFF090E084E475F00112016790E124E0EE
:1016F00004F0700690E123E004F090E1B2E0FBA377
:10170000E0FAA3E0F9C003C002C00190E083E0FB6F
:10171000A3E0FAA3E0F9D082D083D0E06B7008E9AF
:1017200065827003EA6583700D90E08304F0A37412
:10173000E2F0A37461F090E120E0FBA3E0FAA3E003
:10174000F9C003C002C00190E083E0FBA3E0FAA36C
:10175000E0F9D082D083D0E06B7008E96582700335
:10176000EA6583600D1224DC90E11DE4F0A304F02F
:101770008007E490E11DF0A3F090E6CDE0FF122495
:101780009D22C0E0C0F0C083C082C0D075D000C030
:1017900000C001C002C003C004C005C006C00712DB
:1017A000256390E6BFEFF0E5E95591A3F053E9FE1C
:1017B00053E9FD53E9FB53E9F753E9EF53E9DF53ED
:1017C000E9BF53E97FE030E30312281C90E6C0E054
:1017D00030E50312281F90E6C0E030E6031228220D
:1017E00090E6C0E030E41490E6C2E5E2F090E6C195
:1017F000E5E3F0E0FEA3E0FF122825539BFC90E612
:10180000BFE0FF12249DD007D006D005D004D0033E
:10181000D002D001D000D0D0D082D083D0F0D0E0A0
:1018200032787FE4F6D8FD758107021868021FFC44
:10183000E493A3F8E493A34003F68001F208DFF4F5
:101840008029E493A3F85407240CC8C333C4540F6D
:101850004420C8834004F456800146F6DFE4800B40
:101860000102040810204080901FC6E47E019360AE
:10187000BCA3FF543F30E509541FFEE493A360016D
:101880000ECF54C025E060A840B8E493A3FAE493D7
:10189000A3F8E493A3C8C582C8CAC583CAF0A3C885
:1018A000C582C8CAC583CADFE9DEE780BEC0E0C022
:1018B000F0C083C082C0D075D000C000C001C0029B
:1018C000C003C004C005C006C00712256390E6CE61
:1018D000EFF0E5E730E60EE5E430E70953E47F5347
:1018E000E7BF12282EE5E630E60EE5E430E60953C0
:1018F000E4BF53E6BF122831E5E530E60EE5E430FB
:10190000E50953E4DF53E5BF12283AE5E430E40685
:1019100053E4EF12284090E6CEE0FF12249DD0075A
:10192000D006D005D004D003D002D001D000D0D052
:10193000D082D083D0F0D0E03290E2467410F0A391
:10194000743DF0A37423F0E4A3F0A3F0A3F090E2BD
:101950005BE0FCA3E0FDEC90E24CF0A3EDF012257F
:101960003912003E7B017AE27946121C3590E24C36
:10197000E0FEA3E0FDEDFF90E259EEF0A3EFF09062
:10198000E259E0FEA3E0FF12260B90E259E0FEA32D
:10199000E0FF90E64FEEF0A3EFF0122602122301D3
:1019A0007F111222A37F641220BC1226381226F85F
:1019B0000226F490E6DEE5E2F090E6DDE5E3F0C332
:1019C000A3E09FFF90E6DDE09EFEC3EF9DEE9C400E
:1019D00003A38019C3ED9FFFEC9EFE90E6DFF0A30A
:1019E000EFF0D39405EE9400501690E6DEE0240567
:1019F000FE90E6DDE0340090E6DBF0A3CEF0801A46
:101A000090E6DDE0FEA3E0FF90E6E0E02FFF90E649
:101A1000DFE03E90E6DBF0A3EFF090E6DCE0F5DA05
:101A200090E6DBE0F5DB43E54022EF75F009A42406
:101A30000AF974E135F0FA90E66C7401F0A3EAF06B
:101A4000A3E9F090E663E0FCA3E0FDA3E0FEA3E0E1
:101A5000FF90E66CE0FBA3E0FAA3E0F912036590C7
:101A6000E667E0FCA3E0FDA3E0FEA3E0FF90E66CE8
:101A7000E0FBA3E0FAA3E0F990000412037F90E6F4
:101A80006BE05401FFE92408F9E43AFA12008654A5
:101A9000FE4F1200CC44021200CC02268090E25B82
:101AA000E0FFA3E090E252CFF0A3EFF090E2567493
:101AB00001F0A374E1F0A37426F090E256E0FBA3DA
:101AC000E0FAA3E0F974091200CC90E256E0FBA31F
:101AD000E0FAA3E0F9900001E4F5F01201E090E1F2
:101AE000B7E0FF04F0900003EF1200DE90000474F2
:101AF000FFF5F01201E0900006E4F5F01201E0902D
:101B0000007EE41200DE90007FE41200DE7F0022FF
:101B100090E660EBF0A3EAF0A3E9F0A3EDF0E49027
:101B2000E667F0A3F090E663E0FF90E667E0FCA3D1
:101B3000E0FDC39F7480F8EC648098503FED4C60EA
:101B40000E90E664E0FBA3E0FAA3E0F912075690DA
:101B5000E660E0FBA3E0FAA3E0F990E667E0FEA30D
:101B6000E0F5828E8312009FFF121DA590E668E0CB
:101B700004F070B190E667E004F080A92290E65589
:101B8000EFF0B40C00504F901B8EF8282873021B06
:101B9000B2021BB5021BB8021BBB021BBE021BC15B
:101BA000021BC4021BC7021BCA021BCD021BD002B0
:101BB0001BD3022440020504021F8E020EBC022524
:101BC0009B02222102193902161802224302102D0B
:101BD00002004E02256B90E655E0FF1226BC22C0A3
:101BE000E0C0F0C083C082C0D075D000C000C0018A
:101BF000C002C003C004C005C007E4FDFC12256399
:101C000090E6CCEFF0E58620E003C2E90D90E6CC4B
:101C1000E0FF12249DED4C600312282BD007D00565
:101C2000D004D003D002D001D000D0D0D082D08355
:101C3000D0F0D0E03290000712009F90DF4AF09081
:101C4000000612009F90DF49F090000512009F905F
:101C5000DF48F090000412009F90DF47F0900003EF
:101C600012009F90DF46F090000212009F90DF4527
:101C7000F090000112009F90DF44F012008690DF88
:101C800043F022C0E0C0F0C083C082C0D075D00055
:101C9000C000C001C002C003C004C005C006C00728
:101CA00012256390E6B7EFF0C28912281990E6B7C3
:101CB000E0FF12249DD007D006D005D004D003D079
:101CC00002D001D000D0D0D082D083D0F0D0E0328A
:101CD00012256390E656EFF090E23FE0FCA3E0FDB2
:101CE000A3E0FEA3E0FF90E114E0F8A3E0F9A3E095
:101CF000FAA3E02FFFEA3EFEE93DFDE83CFC90E65A
:101D0000571203F390E656E0FF12249DA3E0FCA3D4
:101D1000E0FDA3E0FEA3E0FF2290E67C1203F39037
:101D2000E680E0FCA3E0FDA3E0FEA3E0FF90E24E2E
:101D30001203F390E684E090E000F090E680E0FC8F
:101D4000A3E0FDA3E0FEA3E0FF90E6891203F39079
:101D5000E67CE0FCA3E0FDA3E0FEA3E0FF02218C13
:101D600090E256E0FBA3E0FAA3E0F9900003120032
:101D70009F04547FFF9000031200DE90E67AF01279
:101D800027F87BFF7A0D79761225E090E25612242F
:101D9000A390E67AE0540F70097BFF7A0D79371231
:101DA00025E002266EAD07ED54F0FFE4C4F854F0D0
:101DB000C8EFC4540F48FEC3940AEE500424308088
:101DC00002243790E67BF0ED540FFEC3940AEE50E8
:101DD0000424308002243790E67CF0E490E67DF025
:101DE0007B017AE6797B1207562290E68D1203F387
:101DF00012256390E695EFF090E68DE0FCA3E0FD00
:101E0000A3E0FEA3E0FF90E1141203F390E691E05B
:101E1000FCA3E0FDA3E0FEA3E0FF90E23F1203F38A
:101E200012096790E695E0FF02249DC0E0C0F0C073
:101E300083C082C0D075D000C000C001C002C00302
:101E4000C004C005C006C007C28BAFC1122828D08D
:101E500007D006D005D004D003D002D001D000D0E6
:101E6000D0D082D083D0F0D0E0321228077BFF7A26
:101E70000E79751225E090E1B6740BF0FF12272859
:101E80007BFF7A0E79671225E090E1B6E0FF12271A
:101E90002C7BFF7A0E79721225E090E1257401F017
:101EA00090E25DF002277090E118E0FCA3E0FDA352
:101EB000E0FEA3E02401FFE43EFEE43DFDE43CFC43
:101EC00090E1181203F390E118E0FCA3E0FDA3E019
:101ED000FEA3E0FFE4FBFAF9F8C31202F17003126B
:101EE000283D2290E0837401F0A374E2F0A37461B2
:101EF000F0F990E1207401F0A374E2F0A3E9F0900E
:101F0000E1B27401F0A374E6F0A37449F0E490E147
:101F10001DF0A3F090E123F0A3F0FF2212216490C2
:101F2000E653EFF0121EE312258BEFF01224681235
:101F3000258BEFF012245412258BEFF012001612AD
:101F4000258BEFF012001612258BEFF0121A9D125E
:101F5000258BEFF02290E651E0F4602FE090E655FB
:101F6000F024A6F582E434E1F583E0FF90E651F039
:101F7000BFFF0690E11374FFF090E655E0FF24A642
:101F8000F582E434E1F58374FFF0227FFF2290E0D4
:101F900000E0702F12271CC004C005C006C00790C7
:101FA000E24EE0FCA3E0FDA3E0FEA3E0FF90E680AC
:101FB0001203F3E490E684F0D007D006D005D004F5
:101FC000121D190227FE42E25B000141E64A004170
:101FD000E2550141E1250041E25D0041E238004166
:101FE000E1B70141E0820041E6490041E11F0041C3
:101FF000E64E0041E2540041E08900001225639062
:10200000E652EFF01227A41226D81226DCEF70FA5F
:10201000121F1C1226DCEF70FA90E652E0FF122429
:102020009D12281012280A1228167EFF7FFF229088
:10203000E657EBF0A3EAF0A3E9F0A3EDF07BFF7025
:10204000067A0D794C80157A0D79601225E090E6BC
:102050005AE0FF1224B27BFF7A0D79371225E02275
:1020600090E65DEFF012271490E6631203F390E61A
:102070005EE0FCA3E0FDA3E0FEA3E0FF90E66712B4
:1020800003F3E490E66BF090E65DE0FF021A2AC0ED
:1020900004C005C006C00790E678E0FCA3E0FDA3FD
:1020A000E0FEA3E0FF90E6801203F390E684740163
:1020B000F0D007D006D005D004021D19EF75F01F2F
:1020C000A4FFAEF07C007D64120112EF541FFF905C
:1020D000DF0AE0FCA3E054E0FDECFEED4FFF90DFF3
:1020E0000AEEF0A3EFF022AE0712231EEF701F904E
:1020F000E651E0B4FF02800D90E113E024A6F582E2
:10210000E434E1F583EEF090E113F07F01227F00EB
:102110002212256390E654EFF0121F5590E653EF1C
:10212000F0BFFF0512281380F090E654E0FF122460
:102130009D90E653E0FF121B7D80D6AE071225630B
:1021400090E6CFEFF0AF061220E7EF60047F00804B
:10215000027F0590E6D0EFF090E6CFE0FF12249DDD
:10216000A3E0FF2253F1FE43F30CE5C65440C41331
:10217000135403240CF5C575C2D84386C043C482EA
:10218000C2E9C28BD2AA439A047F0022C004C005D0
:10219000C006C00790E689E0FCA3E0FDA3E0FEA333
:1021A000E0FF90E6911203F3D007D006D005D004EB
:1021B000021DEAC004C005C006C00790E670E0FC3E
:1021C000A3E0FDA3E0FEA3E0FF90E6781203F3D0C6
:1021D00007D006D005D00402208FEF7803CEC313BA
:1021E000CE13D8F9FFE4FDFCC3ED9FEC9E500EE446
:1021F000FB0BEBB420FB0DBD00010C80EB2290E645
:1022000061EEF0A3EFF0EEFF121DA5C006C007902F
:10221000E661A3E0FF121DA5D0E02FFFD0E03EFE57
:102220002212256390E656EFF090E11CE0FE1224A6
:102230009D90E243E0FBA3E0FAA3E0F9AF06AD070F
:102240000227DA12235490E082E0600E120006901A
:10225000E1B5E0FF1222A302250290E1B5E0FF12F2
:1022600022A322C002C00190E65DE0F9A3E0FAA338
:10227000E090E664C9F0A3EAF0A3E9F0D001D0024F
:10228000021B10E4FFFEFDFC90E23FE0F8A3E0F942
:10229000A3E0FAA3E0FBC31202F170030228371295
:1022A000096722EF24F5FFE434FFFE7C007D051270
:1022B000010074652FFF74013E444090DF10F0A3CD
:1022C000EFF02290E6591203F390E659E0FCA3E008
:1022D000FDA3E0FEA3E0FF90E65E1203F3E4FF023D
:1022E00020607BFF7A0E798B1226E090E11FE07070
:1022F0000990E64EE0700312265C90E64E7401F001
:102300002290DF02E054F7F0A3E04420F090DF4F8A
:10231000747FF090DF0A7405F0A3740FF02274A6A6
:102320002FF582E434E1F583E0B4FF0790E113E098
:10233000B507047F0180027F00227E007F0C7DFFB5
:102340007B017AE179A612045690E65174FFF09071
:10235000E113F022E4FA90DF62E030E410EAC39483
:1023600032500A7F647E001221DA0A80E922EFC32C
:10237000940B4006EFD3941A40037F012290E1B5FD
:10238000EFF01226927F002212256390E659EFF0BB
:1023900043912053E9DF439A01E0FF12249D7F001F
:1023A0002212256390E656EFF043914053E9BF4374
:1023B0009A01E0FF12249D7F002212017DFFAEF002
:1023C00090E259EEF0A3EFF090DF4DEEF0A3EFF0C6
:1023D0007F002290E11FE0701290DF53E0D3940061
:1023E000400990E11F7401F01226622253BEFC5393
:1023F000BEFBE5BE30E6FB7408FFF5C61226D47FAF
:1024000000221227D41227CB1227C81227BF122767
:10241000B31227B07F002290E649E06005E4F002A5
:1024200026A47BFF7A0E79A11226E02290E65912AB
:10243000255BA3EFF090E11CEDF012249D022656DF
:1024400012277090E256E0FBA3E0FAA3E0F912270E
:102450009802277C12269890E25E7401F0A374E142
:10246000F0A374B8F07F002290E23C7401F0A374F2
:10247000E0F0A3748AF012269E7F0022121F55EF0F
:10248000B4FF07E490E653F0FF22121B7D7F012288
:1024900012256390E656EFF0E490E11FF0EF24FF81
:1024A00092AF22E0FBA3E0FAA3E0900003F9120050
:1024B0009FFF121DA52290E679EFF07003021D60C8
:1024C00090E679E0FF12267422EF75F009A4241239
:1024D000F582E434E1F583E054FDF02290E083E0FE
:1024E000FBA3E0FAA3E0F9120086FF1226C722122E
:1024F000256390E659EFF05391DFE0FF12249D7FB2
:10250000002275E1E675E1E61226E875E1E290E069
:10251000827401F02212256390E656EFF0C289D250
:10252000A812249D7F002290E6EFE5E2F090E6EE0F
:10253000E5E3F0E0FEA3E0FF2290DF17E054F7F0C0
:10254000E04408F0E5E920E7FB2290E64BEBF0A33E
:10255000EAF0A3E9F012268C7F0022EBF0A3EAF068
:10256000A3E9F0A2AFE433FFC2AF2290E64BE0FB59
:10257000A3E0FAA3E0F9E4FD0227D712256390E671
:10258000CAEFF01227EFE0FF02249DAD0790E6535B
:10259000E0FFEFB5050280027F01221226FC90E0E9
:1025A00086EBF0A3EAF0A3E9F02290DF177404F0C1
:1025B00090DF17E020E4F92290E082E0600312004F
:1025C000067F0022F91201A8FFAEF01221FE229030
:1025D000E001EFF01227F80226AA7BFF7A0D793589
:1025E0001207562290E6E01203F31225272290DF0D
:1025F00002E04408F07F002290DF02E054F7F07F11
:10260000002290DF4BEEF0A3EFF02290DF4DEEF0D2
:10261000A3EFF0221225AA1225027F0022122354D2
:102620001226387F002212281053BEFC02280D907B
:10263000E6C3EEF0A3EFF02290DF17E04408F022AB
:10264000AE071226B00225CF7B017AE27959227BB0
:10265000017AE27946227F0512213B227F0A12216C
:102660003B227F0912213B22E5E45410FF22E4FFC4
:1026700012213B2290E67AEFF02212271402128CEC
:102680007F0312213B221225027F00227F071221A5
:102690003B227F0812213B227F0412213B227F062E
:1026A00012213B227F0B12213B227F0112213B2270
:1026B00090E6CAEFF0227F0212213B2290E656EF0D
:1026C000F022E4FF0224C98FC17F002243FE0822CA
:1026D00043FE0122122402221223EC2212247C2225
:1026E000120756221224EF22122388221213A0224C
:1026F000120B3F22122515221223A1221226482254
:1027000053E5BF2212154F22122704221227082256
:1027100012270C221227102212266822121CD02205
:1027200012236E22122720221227242212116F2236
:1027300012264F2212273022122734221225EE228F
:1027400012273C22122740221225F8221227482263
:1027500012274C221223BA2212275422122758225F
:102760001226FC2212276022122614221227682227
:1027700012276C2212261D22122774221227782279
:102780001226862212278022122784221225B8229E
:1027900012278C22122790221214852212254A22F7
:1027A0001226402202233AC293220227A70227AA16
:1027B0000227AD020012C290220227B60227B902F8
:1027C00027BC0226CC0227C20227C502004A0226E5
:1027D000D00227CE0227D102242C02202F0227006C
:1027E0000227DD0227E00227E30227E6B290220259
:1027F00027EC02257B0227F20227F50219B30226F5
:102800007A020081022801022804021E6AC2AF2255
:10281000D2AF220226260221110222E20200820207
:1028200023D302241702262F0227A00216DA022839
:10283000430228440226B602283402228302284595
:06284000021EA722222265
:00000001FF
