:10000000021819021C7B75E1E51226BDE490E0821E
:10001000F02222021DDEE4F5E6F5E7F5E2F5E35312
:10002000E4F353E40F43E504D2B943D84043E54039
:10003000E5E454FC4401F5E47F0022021BD753BEE3
:10004000FB53C6FEE5BE30E6FB22220218A590E077
:1000500082E0600E12000675E1E675E1E61224C04A
:10006000800675E1E675E1E612252190E656EFF08F
:10007000E490E64EF012246E7BFF7A0C79FD0226A6
:10008000B9222202177ABB010689828A83E02250B4
:1000900002E722BBFE02E32289828A83E49322BB29
:1000A000010CE58229F582E5833AF583E0225006CA
:1000B000E92582F8E622BBFE06E92582F8E222E580
:1000C0008229F582E5833AF583E49322BB01068910
:1000D000828A83F0225002F722BBFE01F322F8BB92
:1000E000010DE58229F582E5833AF583E8F0225097
:1000F00006E92582C8F622BBFE05E92582C8F22260
:10010000EF8DF0A4A8F0CF8CF0A428CE8DF0A42E13
:10011000FE22BC000BBE0029EF8DF084FFADF02263
:10012000E4CCF875F008EF2FFFEE33FEEC33FCEE75
:100130009DEC984005FCEE9DFE0FD5F0E9E4CEFD68
:1001400022EDF8F5F0EE8420D21CFEADF075F0083B
:10015000EF2FFFED33FD4007985006D5F0F222C394
:1001600098FD0FD5F0EA22C5F0F8A3E028F0C5F01D
:10017000F8E582158270021583E038F022BB010A8F
:1001800089828A83E0F5F0A3E022500687F009E730
:100190001922BBFE07E3F5F009E3192289828A835D
:1001A000E493F5F074019322BB0110E58229F582F6
:1001B000E5833AF583E0F5F0A3E0225009E92582D2
:1001C000F886F008E622BBFE0AE92582F8E2F5F09F
:1001D00008E222E5832AF583E993F5F0A3E9932267
:1001E000F8BB0111E58229F582E5833AF583E8F051
:1001F000E5F0A3F0225009E92582C8F608A6F0220E
:10020000BBFE09E92582C8F2E5F008F22275F00884
:10021000758200EF2FFFEE33FECD33CDCC33CCC54E
:100220008233C5829BED9AEC99E58298400CF58269
:10023000EE9BFEED9AFDEC99FC0FD5F0D6E4CEFBDB
:10024000E4CDFAE4CCF9A88222B800C1B90059BAC9
:10025000002DEC8BF084CFCECDFCE5F0CBF97818F7
:10026000EF2FFFEE33FEED33FDEC33FCEB33FB10F1
:10027000D703994004EB99FB0FD8E5E4F9FA22780B
:1002800018EF2FFFEE33FEED33FDEC33FCC933C91D
:1002900010D7059BE99A4007EC9BFCE99AF90FD827
:1002A000E0E4C9FAE4CCFB2275F010EF2FFFEE3347
:1002B000FEED33FDCC33CCC833C810D7079BEC9A86
:1002C000E899400AED9BFDEC9AFCE899F80FD5F00F
:1002D000DAE4CDFBE4CCFAE4C8F922EB9FF5F0EACE
:1002E0009E42F0E99D42F0EC6480C864809845F03D
:1002F00022EB9FF5F0EA9E42F0E99D42F0E89C4532
:10030000F022E8600FEFC333FFEE33FEED33FDEC78
:1003100033FCD8F122BB010789828A8302048E5004
:1003200005E9F8020482BBFE05E9F802049A898215
:100330008A830204A6BB010DE58229F582E5833A92
:10034000F58302048E5007E92582F8020482BBFE81
:1003500007E92582F802049AE58229F582E5833AC5
:10036000F5830204A6BB010789828A830203F35046
:1003700005E9F80204ECBBFE05E9F80204F822BB2B
:10038000010DE58229F582E5833AF5830203F350F6
:1003900007E92582F80204ECBBFE07E92582F80292
:1003A00004F822BB010789828A830204C35005E94D
:1003B000F80204B6BBFE05E9F80204CF89828A83FD
:1003C0000204DCBB010DE58229F582E5833AF58361
:1003D0000204C35007E92582F80204B6BBFE07E910
:1003E0002582F80204CFE58229F582E5833AF58378
:1003F0000204DCECF0A3EDF0A3EEF0A3EFF022A8F2
:10040000828583F0D083D08212041612041612045F
:1004100016120416E473E493A3C583C5F0C583C81C
:10042000C582C8F0A3C583C5F0C583C8C582C822EC
:10043000D083D082F8E4937012740193700DA3A35B
:1004400093F8740193F5828883E47374029368606F
:10045000EFA3A3A380DFEF4E6012EF60010EEDBBB0
:10046000010B89828A83F0A3DFFCDEFA2289F05037
:1004700007F709DFFCA9F022BBFEFCF309DFFCA9AA
:10048000F022E6FC08E6FD08E6FE08E6FF22E0FCB6
:10049000A3E0FDA3E0FEA3E0FF22E2FC08E2FD08EA
:1004A000E2FE08E2FF22E493FC740193FD740293E0
:1004B000FE740393FF22E6FB08E6F908E6FA08E675
:1004C000CBF822E0F8A3E0F9A3E0FAA3E0FB22E2F4
:1004D000FB08E2F908E2FA08E2CBF822E493F874A8
:1004E0000193F9740293FA740393FB22ECF608ED7E
:1004F000F608EEF608EFF622ECF208EDF208EEF25E
:1005000008EFF22212252190E658EFF090E001E08A
:1005100090E656F012246EE012043005430D06EC0E
:100520002B06FF2D05EB61061862064D630673640A
:1005300006B16506D06D05987205CD730546740049
:1005400000073702060F90E1B7E0FF04F090E25693
:10055000E0FBA3E0FAA3E0F9900003EF1200DE7BDA
:10056000FF7A0D798B1225AC90E65D74FFF0A374D1
:100570000DF0A37425F07B017AE179267D12122219
:10058000167BFF7A0D79271225AC90E256E0FBA38B
:10059000E0FAA3E0F902276990E125E070097BFF0A
:1005A0007A0D79A102074290E25DE0600EE4F07BF3
:1005B000FF7A0D79B01225AC02276590E25D7401D7
:1005C000F07BFF7A0D79C61225AC02275990E12500
:1005D000E0600C1225BA7BFF7A0D796602074212A1
:1005E00025687BFF7A0D797902074212274D1201A7
:1005F0007DFF90E252E5F0F0A3EFF07BFF7A0D79FA
:10060000DB1225AC90E252E0FEA3E0FF1225977BBF
:10061000FF7A0D792702074290E25BE0FFA3E090AA
:10062000E252CFF0A3EFF07BFF7A0D79EB1225AC0D
:1006300090E25BE0FEA3E0FF1225977BFF7A0D7945
:10064000271225AC7B017AE2795202274590E255C8
:10065000E0600EE4F07BFF7A0D79FE1225AC0227F4
:100660003990E2557401F07BFF7A0E79161225ACB1
:1006700002272D12272190E239EBF0A3EAF0A3E93B
:10068000F07BFF7A0E792D1225AC90E65D74FFF0B9
:10069000A3740DF0A37425F090E239E0FBA3E0FA17
:1006A000A3E0F97D081222167BFF7A0D7927020755
:1006B0004290E64AE0600BE4F07BFF7A0E7940025C
:1006C000074290E64A7401F07BFF7A0E794B807204
:1006D00090E238E06005E4F002269B90E238740175
:1006E000F07FE87E037D007C0002227690E1B6E098
:1006F000FFB41A067E0B7F0B8016EF04FF8011906B
:10070000E1B6E0FFB40B067E1A7F1A8003EF14FFF8
:1007100090E1B6EFF07BFF7A0E79551225AC90E1AF
:10072000B6E0FF1227157BFF7A0E79601225AC9098
:10073000E1B6E0FF022711E490E657F07B017AE68C
:1007400079561225AC2290E6C3122519A3EFF0E4E6
:10075000A3F0A3F0A3F090E083E0FBA3E0FAA3E012
:10076000F9C003C002C00190E120A3E0FAA3E0F9C0
:10077000C3D082D083D0E0E99582EA95835003020A
:10078000084A90E1B2E0FBA3E0FAA3E0F9C003C09D
:1007900002C00190E120A3E0FAA3E0F9C3D082D027
:1007A00083D0E0E99582EA9583504490E6C3E0FB6C
:1007B000A3E0FAA3E0F9120086FF603390E120E0A5
:1007C000FBA3E0FAA3E0F9EF1200CC90E121E4757D
:1007D000F00112016790E6C4E475F0011201679020
:1007E000E6C9E004F0709B90E6C8E004F0809390C6
:1007F000E1B2E0FBA3E0FAA3E0F9C003C002C0014C
:1008000090E120E0FBA3E0FAA3E0F9D082D083D00E
:10081000E06B7008E965827003EA658370117B0103
:1008200090E12004F0A374E2F0A37461F0801B90C7
:10083000E11DE07002A3E0700B12249A90E11DE428
:10084000F0A304F090E6C77401F090E6C7E06003FF
:1008500002091F90E083E0FBA3E0FAA3E0F9C003E4
:10086000C002C00190E120A3E0FAA3E0F9C3D08266
:10087000D083D0E0E99582EA9583504490E6C3E0C6
:10088000FBA3E0FAA3E0F9120086FF603390E120B9
:10089000E0FBA3E0FAA3E0F9EF1200CC90E121E441
:1008A00075F00112016790E6C4E475F0011201676A
:1008B00090E6C9E004F0709B90E6C8E004F08093F5
:1008C00090E11DE07002A3E0700B12249A90E11DEC
:1008D000E4F0A304F090E083E0FBA3E0FAA3E0F9E6
:1008E000C003C002C00190E120E0FBA3E0FAA3E056
:1008F000F9D082D083D0E06B7008E965827003EA9A
:100900006583701B90E11DE07002A3E0700B122460
:100910009A90E11DE4F0A304F090E6C77401F09012
:10092000E6C7E0701B90E11DE07002A3E0700B12BF
:10093000249A90E11DE4F0A304F090E6C77401F05E
:1009400090E6C8E0FEA3E0FDAC0690E6C6E0FF122C
:10095000246EAE04AF05221226DD90E6CF1203F31B
:1009600090E23FE0FCA3E0FDA3E0FEA3E0FF90E106
:1009700014E0F8A3E0F9A3E0FAA3E02FFFEA3EFEBB
:10098000E93DFDE83CFC90E6D31203F390E6CFE0AE
:10099000F8A3E0F9A3E0FAA3E0FBA3E0FCA3E0FDE9
:1009A000A3E0FEA3E0C39BFFEE9AFEED99FDEC9859
:1009B000FCA31203F390E6CFE0FCA3E0FDA3E0FE6E
:1009C000A3E0FF90E114E0F8A3E0F9A3E0FAA3E0CC
:1009D000FBD31202F1503F90E114E0FCA3E0FDA331
:1009E000E0FEA3E0FF90E6D3E0F8A3E0F9A3E0FA8D
:1009F000A3E0FBC31202F1406390E6CFE0FCA3E06A
:100A0000FDA3E0FEA3E0FFA3E0F8A3A3A3E0D312BD
:100A100002F15048803C90E114E0FCA3E0FDA3E02B
:100A2000FEA3E0FF90E6D3E0F8A3E0F9A3E0FAA389
:100A3000E0FBC31202F1501A90E6CFE0FCA3E0FD08
:100A4000A3E0FEA3E0FFA3E0F8A3A3A3E01202F15A
:100A5000500A90E6D71203FF00000000E4FF7E0476
:100A6000FDFC90E6D7E0F8A3E0F9A3E0FAA3E0FBF1
:100A7000D31202F1404E90E6CFE0FCA3E0FDA3E0EC
:100A8000FEA3E02400FFEE3404FEE43DFDE43CFC64
:100A900090E1141203F390E6D7E0FCA3E0FDA3E09D
:100AA000FEA3E02400FFEE34FCFEED34FFFDEC3449
:100AB000FFFC90E23F1203F390E6D71203FF000021
:100AC0000400803890E114E0FCA3E0FDA3E0FEA365
:100AD000E0FF90E23FE0F8A3E0F9A3E0FAA3E0FB37
:100AE000EF2BFFEE3AFEED39FDEC38FC90E11412ED
:100AF00003F390E23F1203FF0000000090E6CFA353
:100B0000A3E0FEA3E07805C333CE33CED8F9FFC00F
:100B100006C00790E6D7A3A3E0FEA3E07805C333A1
:100B2000CE33CED8F9FDAC06D007D0060227BD9053
:100B3000E657EBF0A3EAF0A3E9F090E657E0FBA359
:100B4000E0FAA3E0F9120086FF90E65AF090E25E28
:100B5000E0FBA3E0FAA3E0F9EF1200CC90E657E047
:100B6000FBA3E0FAA3E0F990000212009FFF90E6D9
:100B70005BE4F0A3EFF090000112009FFD7C009079
:100B8000E65CE0FEE42DFFEC3EFE90E65BF0A3EFBA
:100B9000F090E25EE0FBA3E0FAA3E0F9900001EE42
:100BA0008FF01201E090E657E0FBA3E0FAA3E0F932
:100BB00090000312009FFF90E25EE0FBA3E0FAA327
:100BC000E0F9900003EF1200DE90E657E0FBA3E0AF
:100BD000FAA3E0F990000512009FFF90E65BE4F0B5
:100BE000A3EFF090000412009FFD90E65CE0FEE4AD
:100BF0002DFFEC3EFE90E65BF0A3EFF090E25EE0AE
:100C0000FBA3E0FAA3E0F9900004EE8FF01201E0FC
:100C100090E657E0FBA3E0FAA3E0F990000712008A
:100C20009FFF90E65BE4F0A3EFF090000612009FB8
:100C3000FD90E65CE0FEE42DFFEC3EFE90E65BF00E
:100C4000A3EFF090E25EE0FBA3E0FAA3E0F99000EE
:100C500006EE8FF01201E07F0890E65AE0FE14FDE8
:100C6000EFC39D502B90E657E0FBA3E0FAA3E0F919
:100C70008F8275830012009FFD90E25EE0FBA3E08F
:100C8000FAA3E0F98F82758300ED1200DE0F80C9B0
:100C9000EE24FFFDE434FFFC90E657E0FBA3E0FA0E
:100CA000A3E0F98D828C8312009FFF90E25EE0FB4F
:100CB000A3E0FAA3E0F990007EEF1200DE90E65781
:100CC000E0FBA3E0FAA3E0F98E8275830012009F97
:100CD000FF90E25EE0FBA3E0FAA3E0F990007FEF73
:100CE0001200DE1226C590E25EEBF0A3EAF0A3E963
:100CF000F090E657E0FBA3E0FAA3E0F9224D414370
:100D00003A2042756666657220666C757368656424
:100D10000D0A005265636569766564207061636BD6
:100D200065743A200020000D0A004D41433A2043EB
:100D30005243204661696C65640A0D005472616E0D
:100D4000736D697373696F6E20646F6E650D0A0051
:100D50005472616E736D697373696F6E2066616939
:100D60006C65643A2000526164696F207475726E1C
:100D70006564206F66660D0A00526164696F2074B5
:100D800075726E6564206F6E0D0A005472616E7329
:100D90006D697474696E67207061636B65743A2065
:100DA00000526164696F206973206F66660D0A00E6
:100DB0005265636569766572207475726E6564202C
:100DC0006F66660D0A005265636569766572207408
:100DD00075726E6564206F6E0D0A0053686F7274D1
:100DE00020616464726573733A20005365742073E4
:100DF000686F7274416464726573733A2000416471
:100E000064726573732066696C746572696E6720BD
:100E10006F66660D0A0041646472657373206669CB
:100E20006C746572696E67206F6E0D0A0045787488
:100E3000656E64656420616464726573733A200052
:100E40004563686F206F66660D0A004563686F2012
:100E50006F6E0D0A004368616E6E656C203A20006B
:100E60000A0D0050726F6772616D20696E69746956
:100E7000616C697A65640A0D004D41433A20427500
:100E800066666572206F76657272756E0D0A004D2A
:100E900041433A20556E7363686564756C656420E0
:100EA0007472616E736D69740A001226ED90E656D5
:100EB0001203F390E65A1203FF7FFFFFFFE490E670
:100EC0005EF01227BAA3F0A3F090E65FE0FEA3E085
:100ED000FFC39401EE94004003020FC57C007D091E
:100EE000120100740A2FF974E13EFA7B01A3EBF0C2
:100EF000A3EAF0A3E9F090000812009FFFC31320BB
:100F0000E003020FB490E661E0FBA3E0FAA3E0F98E
:100F10001203A390E656E0FCA3E0FDA3E0FEA3E0ED
:100F2000C39BFFEE9AFEED99FDEC98FC90E66412EF
:100F300003F390E661E0FBA3E0FAA3E0F99000047C
:100F4000120335C004C005C006C00790E664E0FC8B
:100F5000A3E0FDA3E0FEA3E0FBAA06A905A804D038
:100F600007D006D005D004C3EF9BFFEE9AFEED99A3
:100F7000FDEC98FCA31203F390E65AE0FCA3E0FD1D
:100F8000A3E0FEA3E0FF90E668E0F8A3E0F9A3E0A9
:100F9000FAA3E0FBC31202DB501A90E668E0FCA360
:100FA000E0FDA3E0FEA3E0FF90E65A1203F390E613
:100FB0005E7401F090E660E004F0700690E65FE099
:100FC00004F0020EC990E65EE0604FE4FFFEFDFC17
:100FD00090E65AE0F8A3E0F9A3E0FAA3E0FBD3120D
:100FE00002DB501190E656E0FCA3E0FDA3E0FEA377
:100FF000E0FF02127A90E65AE0FCA3E0FDA3E0FED7
:10100000A3E0FF90E6701203F390E656E0FCA3E045
:10101000FDA3E0FEA3E0FF1221662290E254E070FF
:101020002BE5D9F0E0FFC3947F501190E23CE0FB48
:10103000A3E0FAA3E0F9EF1200CC801012263B12D5
:101040002461E490E254F090E089F02290DF53E0D4
:10105000FF90E254E0D39F403A12252190E656EFEC
:10106000F090E64EE0700990E089E0D3940A4012D7
:1010700012263BE490E11FF090E254F090E089F0FA
:10108000800912264190E089E004F090E656E0FFE6
:1010900002246EE490E089F0FF90E254E0FEEFC39A
:1010A0009E504490DF53E0FD94004022ED94815027
:1010B0001DEF2401FDE433FC90E23CE0FBA3E0FAE9
:1010C000A3E0F98D828C83E5D91200DE801690E2D0
:1010D0003CE0FBA3E0FAA3E0F98E82758300E41202
:1010E00000DE80030F80B290E23CE0FBA3E0FAA3B5
:1010F000E0F990E254E0F58275830012009FFFE46E
:1011000090E254F0EF30E7101226C990E23CEBF089
:10111000A3EAF0A3E9F0800F7BFF7A0D792A12266B
:10112000B912246112263B12252190E656EFF09069
:10113000DF53E0FFD39400400AEF9481500512265C
:1011400041800EE490E11FF090E64EE0600312262D
:101150003B90E656E0FF12246E53E9DF22E490E66E
:1011600059F090E65EF0FCFDFE90E6601203F3E4B9
:101170007B64FAF9F890E660E0FCA3E0FDA3E0FEF2
:10118000A3E0FF12024990E65FEFF0700690E65987
:10119000E0604790E65FE02430FF90E65EE0245A8E
:1011A000F582E434E6F583EFF090E65EE004F0903B
:1011B000E660E0FCA3E0FDA3E0FEA3E0FFE47B64C7
:1011C000FAF9F8120249AC00AD01AE02AF0390E6A5
:1011D000601203F390E6597401F0E47B0AFAF9F81F
:1011E00090E660E0FCA3E0FDA3E0FEA3E0FF1202B6
:1011F0004990E65FEFF0700690E659E0604790E6B0
:101200005FE02430FF90E65EE0245AF582E434E6A5
:10121000F583EFF090E65EE004F090E660E0FCA37A
:10122000E0FDA3E0FEA3E0FFE47B0AFAF9F8120276
:1012300049AC00AD01AE02AF0390E6601203F3903B
:10124000E6597401F090E660A3A3A3E02430FF9078
:10125000E65EE0245AF582E434E6F583EFF090E6AA
:101260005EE004F0E0245AF582E434E6F583E4F02D
:101270007B017AE6795A1207462290E66C1203F354
:10128000E490E670F0A3F090E670E0FEA3E0FFC308
:101290009401EE9400400302138B7C007D0912013F
:1012A00000740A2FF974E13EFA7B01A3EBF0A3EA84
:1012B000F0A3E9F090000812009FFFC31320E003A1
:1012C00002137A90E672E0FBA3E0FAA3E0F91203BE
:1012D000A390E66CE0FCA3E0FDA3E0FEA3E0C39BCB
:1012E000FFEE9AFEED99FDEC98FC90E6751203F383
:1012F00090E672E0FBA3E0FAA3E0F9900004120389
:101300003590E675E0F8A3E0F9A3E0FAA3E0FBC3AB
:101310001202F1406590E672E0FBA3E0FAA3E0F967
:1013200090000812009F30E011E92408F9E43AFA2D
:1013300012008654FD1200CC803590E672E0FBA3CB
:10134000E0FAA3E0F9C003C002C00112031590E661
:1013500072A3A3E09000041203C3EF2BFFEE3AFE4A
:10136000ED39FDEC38FCD001D002D00312036590BA
:10137000E670A3E0FF122474801190E671E004F09F
:10138000700690E670E004F002128702265990E69B
:101390005DEBF0A3EAF0A3E9F07BFF7A0D7913127D
:1013A00025AC90E65DE0FBA3E0FAA3E0F91200862D
:1013B000FF1225DD1225A690E65DE0FBA3E0FAA36F
:1013C000E09000011225901225A690E65DE0FBA3B7
:1013D000E0FAA3E09000031225D81225A690E65D5E
:1013E000E0FBA3E0FAA3E09000041225901225A6EA
:1013F00090E65DE0FBA3E0FAA3E0F9900006122579
:10140000911225A6E490E660F090E65DE0FBA3E093
:10141000FAA3E0F912008624F7FF90E660E0FEC32D
:101420009F5021E92408F9E43AFAEE7E0029F9EE0A
:101430003AFA120086FF1225DD1225A690E660E03A
:1014400004F080C590E65DE0FBA3E0FAA3E0900025
:101450007E1225D81225A690E65DE0FBA3E0FAA354
:10146000E0F990007F1225D97BFF7A0D79271225AC
:10147000AC90E65DE0FBA3E0FAA3E0F92290E65928
:10148000122519A3EFF090E659E0F9A3E0FAA3E0E2
:1014900090E243C9F0A3EAF0A3E9F012246E90E6CB
:1014A00059E0FBA3E0FAA3E0F9120086FD90E00208
:1014B000F09000011201A8AAF054F890E003F0EABD
:1014C000A3F090E659A3E0FA90000312009F90E089
:1014D00005F09000041201A8AAF090E006F0EAA33B
:1014E000F090E086E0FBA3E0FAA3E0F912017DAA08
:1014F000F090E008F0EAA3F07F08ED14FEEFC39E41
:10150000502390E659E0FBA3E0FAA3E0F98F82753F
:10151000830012009FFE74022FF582E434E0F5830D
:10152000EEF00F80D574012DF582E434E0F583E40C
:10153000F074022DF582E434E0F583E4F07B017A67
:10154000E0790212276D2290E6DB1203FF00000013
:101550000012252190E6DFEFF090E118E0FCA3E017
:10156000FDA3E0FEA3E0FF1225B090E6E4EEF0A3B9
:10157000EFF01226F1EF602490E6E0E0FCA3E0FD3E
:10158000A3E0FEA3E02401FFE43EFEE43DFDE43CD5
:10159000FC1225B090E6E4EEF0A3EFF090E6E0E078
:1015A000FCA3E0FDA3E0FEA3E0FF90E6E61203F358
:1015B00090E6E4E0FEA3E07805CEC313CE13D8F99D
:1015C000FFE4FCFD90E6EA1203F390E6E6E0FCA3FC
:1015D000E0FDA3E0FEA3E0FF780B120302A3E0F816
:1015E000A3E0F9A3E0FAA3E04FFFEA4EFEE94DFDC8
:1015F000E84CFC90E6DB1203F390E6DFE0FF1224F8
:101600006E90E6DBE0FCA3E0FDA3E0FEA3E0FF229A
:1016100090E082E090E656F070031224C07F807E56
:101620000012218D90DF62E020E01890E082E070EF
:101630000312000690E64BE0FBA3E0FAA3E0F97D7D
:1016400002807A75E1E790E64BE0FBA3E0FAA3E0C5
:10165000F9120086F5D9E4FF90E64BE0FBA3E0FA2F
:10166000A3E0F9120086FEEFC39E500FEFF58275DE
:101670008300A312009FF5D90F80DDE4FFAE070FB2
:10168000EEC39403502075E1E3E4FE90DF62E09046
:10169000E657F020E409AD060EEDC394C840EC9087
:1016A000E657E030E4D790E657E020E41375E1E731
:1016B00090E64BE0FBA3E0FAA3E0F97D030227A844
:1016C00012252190E658EFF090E6497401F01224BB
:1016D0006E2212252190E6CDEFF090E084E475F0C3
:1016E0000112016790E124E004F0700690E123E02C
:1016F00004F090E1B2E0FBA3E0FAA3E0F9C003C07C
:1017000002C00190E083E0FBA3E0FAA3E0F9D082FD
:10171000D083D0E06B7008E965827003EA6583705E
:101720000D90E08304F0A374E2F0A37461F090E103
:1017300020E0FBA3E0FAA3E0F9C003C002C00190DF
:10174000E083E0FBA3E0FAA3E0F9D082D083D0E00D
:101750006B7008E965827003EA6583600D12249A54
:1017600090E11DE4F0A304F08007E490E11DF0A3F4
:10177000F090E6CDE0FF12246E22C0E0C0F0C083FE
:10178000C082C0D075D000C000C001C002C003C07C
:1017900004C005C006C00712252190E6BFEFF0E5A2
:1017A000E95591A3F053E9FE53E9FD53E9FB53E9F1
:1017B000F753E9EF53E9DF53E9BF53E97FE030E343
:1017C000031227DE90E6C0E030E5031227E190E641
:1017D000C0E030E6031227E490E6C0E030E4149065
:1017E000E6C2E5E2F090E6C1E5E3F0E0FEA3E0FF4B
:1017F0001227E7539BFC90E6BFE0FF12246ED00750
:10180000D006D005D004D003D002D001D000D0D073
:10181000D082D083D0F0D0E032787FE4F6D8FD7566
:101820008107021860021FAFE493A3F8E493A3407A
:1018300003F68001F208DFF48029E493A3F854074B
:10184000240CC8C333C4540F4420C8834004F45646
:10185000800146F6DFE4800B01020408102040807E
:10186000901F79E47E019360BCA3FF543F30E509EB
:10187000541FFEE493A360010ECF54C025E060A87E
:1018800040B8E493A3FAE493A3F8E493A3C8C58211
:10189000C8CAC583CAF0A3C8C582C8CAC583CADF7F
:1018A000E9DEE780BEC0E0C0F0C083C082C0D07572
:1018B000D000C000C001C002C003C004C005C00603
:1018C000C00712252190E6CEEFF0E5E730E60EE501
:1018D000E430E70953E47F53E7BF1227FFE5E63022
:1018E000E60EE5E430E60953E4BF53E6BF122802F2
:1018F000E5E530E60EE5E430E50953E4DF53E5BF06
:1019000012280BE5E430E40653E4EF12281190E6C8
:10191000CEE0FF12246ED007D006D005D004D0034D
:10192000D002D001D000D0D0D082D083D0F0D0E08F
:101930003290E2467410F0A3743DF0A37423F0E4F7
:10194000A3F0A3F0A3F090E25BE0FCA3E0FDEC9039
:10195000E24CF0A3EDF01224F712003E7B017AE294
:101960007946121C2D90E24CE0FEA3E0FDEDFF90C5
:10197000E259EEF0A3EFF090E259E0FEA3E0FF128F
:1019800025EA90E259E0FEA3E0FF90E64FEEF0A3D7
:10199000EFF01225E11222D27F111222567F64123B
:1019A000206F1226171226D10226CD90E6DEE5E240
:1019B000F090E6DDE5E3F0C3A3E09FFF90E6DDE015
:1019C0009EFEC3EF9DEE9C4003A38019C3ED9FFFD5
:1019D000EC9EFE90E6DFF0A3EFF0D39405EE9400CA
:1019E000501690E6DEE02405FE90E6DDE03400903F
:1019F000E6DBF0A3CEF0801A90E6DDE0FEA3E0FF88
:101A000090E6E0E02FFF90E6DFE03E90E6DBF0A31B
:101A1000EFF090E6DCE0F5DA90E6DBE0F5DB43E5BD
:101A20004022EF75F009A4240AF974E135F0FA9028
:101A3000E66C7401F0A3EAF0A3E9F090E663E0FC41
:101A4000A3E0FDA3E0FEA3E0FF90E66CE0FBA3E0D3
:101A5000FAA3E0F912036590E667E0FCA3E0FDA3BA
:101A6000E0FEA3E0FF90E66CE0FBA3E0FAA3E0F960
:101A700090000412037F90E66BE05401FFE9240814
:101A8000F9E43AFA12008654FE4F1200CC440212D6
:101A900000CC02265990E25BE0FFA3E090E252CF37
:101AA000F0A3EFF090E2567401F0A374E1F0A37498
:101AB00026F090E256E0FBA3E0FAA3E0F9740912E5
:101AC00000CC90E256E0FBA3E0FAA3E0F99000011D
:101AD000E4F5F01201E090E1B7E0FF04F0900003BC
:101AE000EF1200DE90000474FFF5F01201E09000A8
:101AF00006E4F5F01201E090007EE41200DE9000B2
:101B00007FE41200DE7F002290E660EBF0A3EAF0B3
:101B1000A3E9F0A3EDF0E490E667F0A3F090E663AC
:101B2000E0FF90E667E0FCA3E0FDC39F7480F8EC63
:101B3000648098503FED4C600E90E664E0FBA3E0BB
:101B4000FAA3E0F912074690E660E0FBA3E0FAA3EF
:101B5000E0F990E667E0FEA3E0F5828E8312009F35
:101B6000FF121D5890E668E004F070B190E667E05F
:101B700004F080A92290E655EFF0B40C00504F908D
:101B80001B86F8282873021BAA021BAD021BB00299
:101B90001BB3021BB6021BB9021BBC021BBF021BFC
:101BA000C2021BC5021BC8021BCB02241102050482
:101BB000021F41020EAA0225590221D40219310244
:101BC00016100221F602101B02004E02252990E693
:101BD00055E0FF12269522C0E0C0F0C083C082C04D
:101BE000D075D000C000C001C002C003C004C00551
:101BF000C007E4FDFC12252190E6CCEFF0E586203D
:101C0000E003C2E90D90E6CCE0FF12246EED4C60DB
:101C1000031227FCD007D005D004D003D002D00196
:101C2000D000D0D0D082D083D0F0D0E03290000766
:101C300012009F90DF4AF090000612009F90DF494B
:101C4000F090000512009F90DF48F0900004120011
:101C50009F90DF47F090000312009F90DF46F090C6
:101C6000000212009F90DF45F090000112009F904B
:101C7000DF44F012008690DF43F022C0E0C0F0C0E5
:101C800083C082C0D075D000C000C001C002C003B4
:101C9000C004C005C006C00712252190E6B7EFF0CA
:101CA000C2891227DB90E6B7E0FF12246ED007D07E
:101CB00006D005D004D003D002D001D000D0D0D0BF
:101CC00082D083D0F0D0E03212252190E656EFF09A
:101CD00090E23FE0FCA3E0FDA3E0FEA3E0FF90E183
:101CE00014E0F8A3E0F9A3E0FAA3E02FFFEA3EFE38
:101CF000E93DFDE83CFC90E6571203F390E656E020
:101D0000FF12246EA3E0FCA3E0FDA3E0FEA3E0FF2E
:101D10002290E67C1203F390E680E0FCA3E0FDA3B2
:101D2000E0FEA3E0FF90E24E1203F390E684E09021
:101D3000E000F090E680E0FCA3E0FDA3E0FEA3E07D
:101D4000FF90E6891203F390E67CE0FCA3E0FDA39C
:101D5000E0FEA3E0FF02213FAD07ED54F0FFE4C435
:101D6000F854F0C8EFC4540F48FEC3940AEE500470
:101D700024308002243790E669F0ED540FFEC394BE
:101D80000AEE500424308002243790E66AF0E49092
:101D9000E66BF07B017AE679691207462290E68DC0
:101DA0001203F312252190E695EFF090E68DE0FC0A
:101DB000A3E0FDA3E0FEA3E0FF90E1141203F39083
:101DC000E691E0FCA3E0FDA3E0FEA3E0FF90E23F8C
:101DD0001203F312095790E695E0FF02246EC0E06B
:101DE000C0F0C083C082C0D075D000C000C001C0A8
:101DF00002C003C004C005C006C007C28BAFC11239
:101E000027F9D007D006D005D004D003D002D001E6
:101E1000D000D0D0D082D083D0F0D0E0321227C909
:101E20007BFF7A0E79631225AC90E1B6740BF0FF5C
:101E30001227117BFF7A0E79551225AC90E1B6E09E
:101E4000FF1227157BFF7A0E79601225AC90E125F1
:101E50007401F090E25DF002257290E118E0FCA3BD
:101E6000E0FDA3E0FEA3E02401FFE43EFEE43DFD2F
:101E7000E43CFC90E1181203F390E118E0FCA3E0CD
:101E8000FDA3E0FEA3E0FFE4FBFAF9F8C31202F1C0
:101E9000700312280E2290E0837401F0A374E2F024
:101EA000A37461F0F990E1207401F0A374E2F0A34F
:101EB000E9F090E1B27401F0A374E6F0A37449F084
:101EC000E490E11DF0A3F090E123F0A3F0FF2212D3
:101ED000211790E653EFF0121E96122539EFF012FB
:101EE0002439122539EFF0122425122539EFF0128A
:101EF0000016122539EFF0120016122539EFF012F4
:101F00001A95122539EFF02290E651E0F4602FE0A7
:101F100090E655F024A6F582E434E1F583E0FF90E5
:101F2000E651F0BFFF0690E11374FFF090E655E034
:101F3000FF24A6F582E434E1F58374FFF0227FFFED
:101F40002290E000E0702F122705C004C005C006F3
:101F5000C00790E24EE0FCA3E0FDA3E0FEA3E0FF9B
:101F600090E6801203F3E490E684F0D007D006D028
:101F700005D004121D110227C042E25B000141E6B8
:101F80004A0041E2550141E1250041E25D0041E2A4
:101F9000380041E1B70141E0820041E6490041E1FA
:101FA0001F0041E64E0041E2540041E0890000126A
:101FB000252190E652EFF01227751226B11226B5B0
:101FC000EF70FA121ECF1226B5EF70FA90E652E0CB
:101FD000FF12246E1227D21227CC1227D87EFF7F41
:101FE000FF2290E657EBF0A3EAF0A3E9F0A3EDF0AF
:101FF0007BFF70067A0D793C80157A0D7950122599
:10200000AC90E65AE0FF1225DD7BFF7A0D792712AE
:1020100025AC2290E65DEFF01226ED90E663120308
:10202000F390E65EE0FCA3E0FDA3E0FEA3E0FF90FA
:10203000E6671203F3E490E66BF090E65DE0FF02E2
:102040001A22C004C005C006C00790E678E0FCA3D1
:10205000E0FDA3E0FEA3E0FF90E6801203F390E62C
:10206000847401F0D007D006D005D004021D11EF12
:1020700075F01FA4FFAEF07C007D64120112EF54D6
:102080001FFF90DF0AE0FCA3E054E0FDECFEED4F03
:10209000FF90DF0AEEF0A3EFF022AE071222EFEF7F
:1020A000701F90E651E0B4FF02800D90E113E02430
:1020B000A6F582E434E1F583EEF090E113F07F01C0
:1020C000227F002212252190E654EFF0121F089083
:1020D000E653EFF0BFFF051227D580F090E654E0FD
:1020E000FF12246E90E653E0FF121B7580D6AE07F8
:1020F00012252190E6CFEFF0AF0612209AEF600490
:102100007F0080027F0590E6D0EFF090E6CFE0FF01
:1021100012246EA3E0FF2253F1FE43F30CE5C654F4
:1021200040C413135403240CF5C575C2D84386C0AC
:1021300043C482C2E9C28BD2AA439A047F0022C060
:1021400004C005C006C00790E689E0FCA3E0FDA33B
:10215000E0FEA3E0FF90E6911203F3D007D006D093
:1021600005D004021D9DC004C005C006C00790E64E
:1021700070E0FCA3E0FDA3E0FEA3E0FF90E6781290
:1021800003F3D007D006D005D004022042EF780335
:10219000CEC313CE13D8F9FFE4FDFCC3ED9FEC9E34
:1021A000500EE4FB0BEBB420FB0DBD00010C80EBEB
:1021B0002290E661EEF0A3EFF0EEFF121D58C0068C
:1021C000C00790E661A3E0FF121D58D0E02FFFD0BA
:1021D000E03EFE2212252190E656EFF090E11CE051
:1021E000FE12246E90E243E0FBA3E0FAA3E0F9AF15
:1021F00006AD070227AB12232590E082E0600E12A5
:10220000000690E1B5E0FF1222560224C090E1B52D
:10221000E0FF12225622C002C00190E65DE0F9A361
:10222000E0FAA3E090E664C9F0A3EAF0A3E9F0D0F5
:1022300001D002021B08E4FFFEFDFC90E23FE0F843
:10224000A3E0F9A3E0FAA3E0FBC31202F1700302DA
:10225000280812095722EF24F5FFE434FFFE7C0022
:102260007D0512010074652FFF74013E444090DF2C
:1022700010F0A3EFF02290E6591203F390E659E034
:10228000FCA3E0FDA3E0FEA3E0FF90E65E1203F3F3
:10229000E4FF0220137BFF7A0E79791226B990E1D0
:1022A0001FE0700990E64EE0700312263B90E64E68
:1022B0007401F02290E125E0600B1225BA7BFF7AD1
:1022C0000D796680091225687BFF7A0D79791225D0
:1022D000AC2290DF02E054F7F0A3E04420F090DF5E
:1022E0004F747FF090DF0A7405F0A3740FF022742E
:1022F000A62FF582E434E1F583E0B4FF0790E11303
:10230000E0B507047F0180027F00227E007F0C7D04
:10231000FF7B017AE179A612045690E65174FFF032
:1023200090E113F022E4FA90DF62E030E410EAC3B7
:102330009432500A7F647E0012218D0A80E922EFD8
:10234000C3940B4006EFD3941A40037F012290E11F
:10235000B5EFF012266B7F002212252190E67AEF6E
:10236000F043912053E9DF439A01E0FF12246E7F8E
:10237000002212252190E656EFF043914053E9BF29
:10238000439A01E0FF12246E7F002212017DFFAE0E
:10239000F090E259EEF0A3EFF090DF4DEEF0A3EFF6
:1023A000F07F002290E11FE0701290DF53E0D394A1
:1023B00000400990E11F7401F01226412253BEFC37
:1023C00053BEFBE5BE30E6FB7408FFF5C61226AD32
:1023D0007F00221227A512279C12279912279012FC
:1023E00027841227817F002290E649E06005E4F00F
:1023F00002267D7BFF7A0E798F1226B92290E6594C
:10240000122519A3EFF090E11CEDF012246E0226C4
:102410003512257290E256E0FBA3E0FAA3E0F91230
:1024200027690225C012267190E25E7401F0A37440
:10243000E1F0A374B8F07F002290E23C7401F0A3B5
:1024400074E0F0A3748AF01226777F0022121F082E
:10245000EFB4FF07E490E653F0FF22121B757F01F3
:102460002212252190E656EFF0E490E11FF0EF24D0
:10247000FF92AF2290E679EFF070030222B490E66B
:1024800079E0FF12264D22EF75F009A42412F5829F
:10249000E434E1F583E054FDF02290E083E0FBA317
:1024A000E0FAA3E0F9120086FF1226A022122521ED
:1024B00090E659EFF05391DFE0FF12246E7F002287
:1024C00075E1E675E1E61226C175E1E290E08274FD
:1024D00001F02212252190E656EFF0C289D2A8120F
:1024E000246E7F002290E6EFE5E2F090E6EEE5E371
:1024F000F0E0FEA3E0FF2290DF17E054F7F0E044A5
:1025000008F0E5E920E7FB2290E64BEBF0A3EAF0C8
:10251000A3E9F01226657F0022EBF0A3EAF0A3E91D
:10252000F0A2AFE433FFC2AF2290E64BE0FBA3E0A2
:10253000FAA3E0F9E4FD0227A8AD0790E653E0FF17
:10254000EFB5050280027F012212252190E6CAEF35
:10255000F01227EDE0FF02246E1226D590E086EB04
:10256000F0A3EAF0A3E9F02290E1257401F090E2F3
:102570005DF01226F92290DF177404F090DF17E067
:1025800020E4F92290E082E060031200067F00223E
:10259000F91201A8FFAEF01221B12290E001EFF094
:1025A0001227F60226837BFF7A0D79251207462231
:1025B00090E6E01203F31224E522E4F090E25DF0ED
:1025C0001227012290DF02E04408F07F002290DF12
:1025D00002E054F7F07F0022F912009FFF121D580D
:1025E0002290DF4BEEF0A3EFF02290DF4DEEF0A350
:1025F000EFF0221225761224C07F0022122325122A
:1026000026177F00221227D253BEFC0227CF90E666
:10261000C3EEF0A3EFF02290DF17E04408F022AE03
:102620000712268902259B7B017AE27959227B01D8
:102630007AE27946227F051220EE227F0A1220EEEE
:10264000227F091220EE22E5E45410FF2290E67A60
:10265000EFF0221226ED02127A7F031220EE2212F0
:1026600024C07F00227F071220EE227F081220EE76
:10267000227F041220EE227F061220EE227F0B1210
:1026800020EE227F011220EE2290E6CAEFF0227F98
:10269000021220EE2290E656EFF022E4FF02248799
:1026A0008FC17F002243FE082243FE01221223D362
:1026B000221223BD2212244D22120746221224ADDB
:1026C000221223592212138E22120B2F221224D3EC
:1026D00022122372221226272253E5BF2212154707
:1026E000221226DD221226E1221226E5221226E9F6
:1026F00022122647221225F3221226F5221225FC49
:10270000221226FD22121CC82212233F2212270960
:102710002212270D2212115D2212262E22122719B3
:102720002212271D221225C4221227252212272910
:10273000221225CE22122731221227352212238B74
:102740002212273D22122741221226D52212274982
:102750002212265F22122751221227552212258487
:102760002212275D221227612212147D22122508CF
:102770002212261F2202230BC2932202277802274D
:102780007B02277E020012C2902202278702278A3C
:1027900002278D0226A502279302279602004A02ED
:1027A00026A902279F0227A20223FD021FE202267A
:1027B000D90227AE0227B10227B40227B70219AB0C
:1027C0000226530200810227C30227C6021E1DC231
:1027D000AF22D2AF220226050220C40222950200B7
:1027E000820223A40223E802260EB290220227EAE4
:1027F0000225490227F00227F30227710216D202AE
:10280000281402281502268F0228050222360228E3
:0728100016021E5A222222CB
:00000001FF
